{
  "contractName": "TVAirDrop",
  "abi": [
    {
      "constant": true,
      "inputs": [],
      "name": "deusToTVRate",
      "outputs": [
        {
          "name": "",
          "type": "uint256"
        }
      ],
      "payable": false,
      "stateMutability": "view",
      "type": "function"
    },
    {
      "constant": true,
      "inputs": [],
      "name": "deusContract",
      "outputs": [
        {
          "name": "",
          "type": "address"
        }
      ],
      "payable": false,
      "stateMutability": "view",
      "type": "function"
    },
    {
      "constant": true,
      "inputs": [],
      "name": "TVContract",
      "outputs": [
        {
          "name": "",
          "type": "address"
        }
      ],
      "payable": false,
      "stateMutability": "view",
      "type": "function"
    },
    {
      "constant": true,
      "inputs": [],
      "name": "holder",
      "outputs": [
        {
          "name": "",
          "type": "address"
        }
      ],
      "payable": false,
      "stateMutability": "view",
      "type": "function"
    },
    {
      "inputs": [
        {
          "name": "_TVContract",
          "type": "address"
        },
        {
          "name": "_deusContract",
          "type": "address"
        },
        {
          "name": "_holder",
          "type": "address"
        },
        {
          "name": "_deusToTVRate",
          "type": "uint256"
        }
      ],
      "payable": false,
      "stateMutability": "nonpayable",
      "type": "constructor"
    },
    {
      "anonymous": false,
      "inputs": [
        {
          "indexed": false,
          "name": "deusTokenId",
          "type": "uint256"
        },
        {
          "indexed": false,
          "name": "sender",
          "type": "address"
        },
        {
          "indexed": false,
          "name": "holder",
          "type": "address"
        },
        {
          "indexed": false,
          "name": "collectTVs",
          "type": "uint256"
        }
      ],
      "name": "AirDropped",
      "type": "event"
    },
    {
      "constant": false,
      "inputs": [],
      "name": "getTVs",
      "outputs": [],
      "payable": false,
      "stateMutability": "nonpayable",
      "type": "function"
    }
  ],
  "bytecode": "0x6060604052341561000f57600080fd5b6040516080806107a183398101604052808051906020019091908051906020019091908051906020019091908051906020019091905050826000806101000a81548173ffffffffffffffffffffffffffffffffffffffff021916908373ffffffffffffffffffffffffffffffffffffffff16021790555083600160006101000a81548173ffffffffffffffffffffffffffffffffffffffff021916908373ffffffffffffffffffffffffffffffffffffffff1602179055508060028190555081600360006101000a81548173ffffffffffffffffffffffffffffffffffffffff021916908373ffffffffffffffffffffffffffffffffffffffff1602179055505050505061067f806101226000396000f30060606040526004361061006d576000357c0100000000000000000000000000000000000000000000000000000000900463ffffffff1680636d2ba2f7146100725780637eef6a0614610087578063883dc8ac146100b0578063d54c709914610105578063e534155d1461015a575b600080fd5b341561007d57600080fd5b6100856101af565b005b341561009257600080fd5b61009a6105dc565b6040518082815260200191505060405180910390f35b34156100bb57600080fd5b6100c36105e2565b604051808273ffffffffffffffffffffffffffffffffffffffff1673ffffffffffffffffffffffffffffffffffffffff16815260200191505060405180910390f35b341561011057600080fd5b610118610607565b604051808273ffffffffffffffffffffffffffffffffffffffff1673ffffffffffffffffffffffffffffffffffffffff16815260200191505060405180910390f35b341561016557600080fd5b61016d61062d565b604051808273ffffffffffffffffffffffffffffffffffffffff1673ffffffffffffffffffffffffffffffffffffffff16815260200191505060405180910390f35b60008060008060009054906101000a900473ffffffffffffffffffffffffffffffffffffffff1673ffffffffffffffffffffffffffffffffffffffff166370a08231336040518263ffffffff167c0100000000000000000000000000000000000000000000000000000000028152600401808273ffffffffffffffffffffffffffffffffffffffff1673ffffffffffffffffffffffffffffffffffffffff168152602001915050602060405180830381600087803b151561026f57600080fd5b5af1151561027c57600080fd5b505050604051805190509250600091505b828260ff1610156105d7576000809054906101000a900473ffffffffffffffffffffffffffffffffffffffff1673ffffffffffffffffffffffffffffffffffffffff16632f745c5933846040518363ffffffff167c0100000000000000000000000000000000000000000000000000000000028152600401808373ffffffffffffffffffffffffffffffffffffffff1673ffffffffffffffffffffffffffffffffffffffff1681526020018260ff16815260200192505050602060405180830381600087803b151561035e57600080fd5b5af1151561036b57600080fd5b5050506040518051905090506004600082815260200190815260200160002060009054906101000a900460ff1615156105ca57600160009054906101000a900473ffffffffffffffffffffffffffffffffffffffff1673ffffffffffffffffffffffffffffffffffffffff166323b872dd600360009054906101000a900473ffffffffffffffffffffffffffffffffffffffff16336002546040518463ffffffff167c0100000000000000000000000000000000000000000000000000000000028152600401808473ffffffffffffffffffffffffffffffffffffffff1673ffffffffffffffffffffffffffffffffffffffff1681526020018373ffffffffffffffffffffffffffffffffffffffff1673ffffffffffffffffffffffffffffffffffffffff1681526020018281526020019350505050602060405180830381600087803b15156104ba57600080fd5b5af115156104c757600080fd5b505050604051805190505060016004600083815260200190815260200160002060006101000a81548160ff0219169083151502179055507faf812c642a1492a8904d3dcd81c9479a2a7bfd4b5456ea7ec1d9023ea87d00dc8133600360009054906101000a900473ffffffffffffffffffffffffffffffffffffffff16600254604051808581526020018473ffffffffffffffffffffffffffffffffffffffff1673ffffffffffffffffffffffffffffffffffffffff1681526020018373ffffffffffffffffffffffffffffffffffffffff1673ffffffffffffffffffffffffffffffffffffffff16815260200182815260200194505050505060405180910390a15b818060010192505061028d565b505050565b60025481565b6000809054906101000a900473ffffffffffffffffffffffffffffffffffffffff1681565b600160009054906101000a900473ffffffffffffffffffffffffffffffffffffffff1681565b600360009054906101000a900473ffffffffffffffffffffffffffffffffffffffff16815600a165627a7a72305820fa031f8bf679096fcbeabbf9cc73304e8636a30c53fad48594f7095faac4abe20029",
  "source": "pragma solidity 0.4.21;\n\nimport 'zeppelin-solidity/contracts/token/ERC721/ERC721.sol';\nimport 'zeppelin-solidity/contracts/token/ERC20/ERC20.sol';\n\ncontract TVAirDrop {\n    ERC721 public deusContract;\n    ERC20 public TVContract;\n    uint256 public deusToTVRate;\n    address public holder;\n\n    mapping(uint256 => bool) internal droppedTokens;\n\n    event AirDropped(uint256 deusTokenId, address sender, address holder, uint256 collectTVs);\n\n    function TVAirDrop(address _TVContract, address _deusContract, address _holder, uint256 _deusToTVRate) public {\n        deusContract = ERC721(_deusContract);\n        TVContract = ERC20(_TVContract);\n        deusToTVRate = _deusToTVRate;\n        holder = _holder;\n    }\n\n    function getTVs() public {\n        uint256 deusTokenCount = deusContract.balanceOf(msg.sender);\n        for (uint8 i = 0; i < deusTokenCount; i++) {\n            uint256 deusToken = deusContract.tokenOfOwnerByIndex(msg.sender, i);\n            if (!droppedTokens[deusToken]) {\n                TVContract.transferFrom(holder, msg.sender, deusToTVRate);\n                droppedTokens[deusToken] = true;\n                emit AirDropped(deusToken, msg.sender, holder, deusToTVRate);\n            }\n        }\n    }\n}\n",
  "sourcePath": "/Users/user/Projects/tvtoken/contracts/TVAirDrop.sol",
  "compiler": {
    "name": "solc",
    "version": "0.4.21+commit.dfe3193c.Emscripten.clang"
  },
  "schemaVersion": "2.0.0",
  "updatedAt": "2018-05-28T11:31:11.417Z"
}