{
  "contractName": "TVAirDrop",
  "abi": [
    {
      "constant": true,
      "inputs": [],
      "name": "TVTContract",
      "outputs": [
        {
          "name": "",
          "type": "address"
        }
      ],
      "payable": false,
      "stateMutability": "view",
      "type": "function"
    },
    {
      "constant": true,
      "inputs": [],
      "name": "deusToTVTRate",
      "outputs": [
        {
          "name": "",
          "type": "uint256"
        }
      ],
      "payable": false,
      "stateMutability": "view",
      "type": "function"
    },
    {
      "constant": true,
      "inputs": [],
      "name": "deusContract",
      "outputs": [
        {
          "name": "",
          "type": "address"
        }
      ],
      "payable": false,
      "stateMutability": "view",
      "type": "function"
    },
    {
      "constant": true,
      "inputs": [],
      "name": "ownerAddress",
      "outputs": [
        {
          "name": "",
          "type": "address"
        }
      ],
      "payable": false,
      "stateMutability": "view",
      "type": "function"
    },
    {
      "inputs": [
        {
          "name": "_deusContract",
          "type": "address"
        },
        {
          "name": "_TVTContract",
          "type": "address"
        },
        {
          "name": "_ownerAddress",
          "type": "address"
        },
        {
          "name": "_deusToTVTRate",
          "type": "uint256"
        }
      ],
      "payable": false,
      "stateMutability": "nonpayable",
      "type": "constructor"
    },
    {
      "anonymous": false,
      "inputs": [
        {
          "indexed": false,
          "name": "id_deus",
          "type": "uint256"
        },
        {
          "indexed": false,
          "name": "sender_address",
          "type": "address"
        },
        {
          "indexed": false,
          "name": "ownerAddress",
          "type": "address"
        },
        {
          "indexed": false,
          "name": "collectTVTs",
          "type": "uint256"
        }
      ],
      "name": "AirDropped",
      "type": "event"
    },
    {
      "constant": false,
      "inputs": [],
      "name": "getTVTs",
      "outputs": [],
      "payable": false,
      "stateMutability": "nonpayable",
      "type": "function"
    }
  ],
  "bytecode": "0x6060604052341561000f57600080fd5b6040516080806107a183398101604052808051906020019091908051906020019091908051906020019091908051906020019091905050836000806101000a81548173ffffffffffffffffffffffffffffffffffffffff021916908373ffffffffffffffffffffffffffffffffffffffff16021790555082600160006101000a81548173ffffffffffffffffffffffffffffffffffffffff021916908373ffffffffffffffffffffffffffffffffffffffff1602179055508060028190555081600360006101000a81548173ffffffffffffffffffffffffffffffffffffffff021916908373ffffffffffffffffffffffffffffffffffffffff1602179055505050505061067f806101226000396000f30060606040526004361061006d576000357c0100000000000000000000000000000000000000000000000000000000900463ffffffff16806338c71d9c14610072578063612805c9146100c757806378895db5146100f0578063883dc8ac146101055780638f84aa091461015a575b600080fd5b341561007d57600080fd5b6100856101af565b604051808273ffffffffffffffffffffffffffffffffffffffff1673ffffffffffffffffffffffffffffffffffffffff16815260200191505060405180910390f35b34156100d257600080fd5b6100da6101d5565b6040518082815260200191505060405180910390f35b34156100fb57600080fd5b6101036101db565b005b341561011057600080fd5b610118610608565b604051808273ffffffffffffffffffffffffffffffffffffffff1673ffffffffffffffffffffffffffffffffffffffff16815260200191505060405180910390f35b341561016557600080fd5b61016d61062d565b604051808273ffffffffffffffffffffffffffffffffffffffff1673ffffffffffffffffffffffffffffffffffffffff16815260200191505060405180910390f35b600160009054906101000a900473ffffffffffffffffffffffffffffffffffffffff1681565b60025481565b60008060008060009054906101000a900473ffffffffffffffffffffffffffffffffffffffff1673ffffffffffffffffffffffffffffffffffffffff166370a08231336040518263ffffffff167c0100000000000000000000000000000000000000000000000000000000028152600401808273ffffffffffffffffffffffffffffffffffffffff1673ffffffffffffffffffffffffffffffffffffffff168152602001915050602060405180830381600087803b151561029b57600080fd5b5af115156102a857600080fd5b505050604051805190509250600091505b828260ff161015610603576000809054906101000a900473ffffffffffffffffffffffffffffffffffffffff1673ffffffffffffffffffffffffffffffffffffffff16632f745c5933846040518363ffffffff167c0100000000000000000000000000000000000000000000000000000000028152600401808373ffffffffffffffffffffffffffffffffffffffff1673ffffffffffffffffffffffffffffffffffffffff1681526020018260ff16815260200192505050602060405180830381600087803b151561038a57600080fd5b5af1151561039757600080fd5b5050506040518051905090506004600082815260200190815260200160002060009054906101000a900460ff1615156105f657600160009054906101000a900473ffffffffffffffffffffffffffffffffffffffff1673ffffffffffffffffffffffffffffffffffffffff166323b872dd600360009054906101000a900473ffffffffffffffffffffffffffffffffffffffff16336002546040518463ffffffff167c0100000000000000000000000000000000000000000000000000000000028152600401808473ffffffffffffffffffffffffffffffffffffffff1673ffffffffffffffffffffffffffffffffffffffff1681526020018373ffffffffffffffffffffffffffffffffffffffff1673ffffffffffffffffffffffffffffffffffffffff1681526020018281526020019350505050602060405180830381600087803b15156104e657600080fd5b5af115156104f357600080fd5b505050604051805190505060016004600083815260200190815260200160002060006101000a81548160ff0219169083151502179055507faf812c642a1492a8904d3dcd81c9479a2a7bfd4b5456ea7ec1d9023ea87d00dc8133600360009054906101000a900473ffffffffffffffffffffffffffffffffffffffff16600254604051808581526020018473ffffffffffffffffffffffffffffffffffffffff1673ffffffffffffffffffffffffffffffffffffffff1681526020018373ffffffffffffffffffffffffffffffffffffffff1673ffffffffffffffffffffffffffffffffffffffff16815260200182815260200194505050505060405180910390a15b81806001019250506102b9565b505050565b6000809054906101000a900473ffffffffffffffffffffffffffffffffffffffff1681565b600360009054906101000a900473ffffffffffffffffffffffffffffffffffffffff16815600a165627a7a72305820c89c0896e491d8363190d3ccf95ee40baa02552ea7c593f90e619b0bc6796adf0029",
  "source": "pragma solidity 0.4.21;\n\nimport 'zeppelin-solidity/contracts/token/ERC721/ERC721.sol';\nimport 'zeppelin-solidity/contracts/token/ERC20/ERC20.sol';\n\ncontract TVAirDrop {\n    ERC721 public deusContract;\n    ERC20 public TVTContract;\n    uint256 public deusToTVTRate;\n    address public ownerAddress;\n\n    mapping(uint256 => bool) internal droppedTokens;\n\n    event AirDropped(uint256 id_deus, address sender_address, address ownerAddress, uint256 collectTVTs);\n\n    function TVAirDrop(address _deusContract, address _TVTContract, address _ownerAddress, uint256 _deusToTVTRate) public {\n        deusContract = ERC721(_deusContract);\n        TVTContract = ERC20(_TVTContract);\n        deusToTVTRate = _deusToTVTRate;\n        ownerAddress = _ownerAddress;\n    }\n\n    function getTVTs() public {\n        uint256 deusTokenCount = deusContract.balanceOf(msg.sender);\n        for (uint8 i = 0; i < deusTokenCount; i++) {\n            uint256 deusToken = deusContract.tokenOfOwnerByIndex(msg.sender, i);\n            if (!droppedTokens[deusToken]) {\n                TVTContract.transferFrom(ownerAddress, msg.sender, deusToTVTRate);\n                droppedTokens[deusToken] = true;\n                emit AirDropped(deusToken, msg.sender, ownerAddress, deusToTVTRate);\n            }\n        }\n    }\n}\n",
  "sourcePath": "/Users/user/Projects/tvtoken/contracts/TVAirDrop.sol",
  "compiler": {
    "name": "solc",
    "version": "0.4.21+commit.dfe3193c.Emscripten.clang"
  },
  "schemaVersion": "2.0.0",
  "updatedAt": "2018-05-25T09:18:12.002Z"
}