{
  "contractName": "TVAirDrop",
  "abi": [
    {
      "constant": true,
      "inputs": [],
      "name": "deusToTVRate",
      "outputs": [
        {
          "name": "",
          "type": "uint256"
        }
      ],
      "payable": false,
      "stateMutability": "view",
      "type": "function"
    },
    {
      "constant": true,
      "inputs": [],
      "name": "deusContract",
      "outputs": [
        {
          "name": "",
          "type": "address"
        }
      ],
      "payable": false,
      "stateMutability": "view",
      "type": "function"
    },
    {
      "constant": true,
      "inputs": [],
      "name": "TVContract",
      "outputs": [
        {
          "name": "",
          "type": "address"
        }
      ],
      "payable": false,
      "stateMutability": "view",
      "type": "function"
    },
    {
      "constant": true,
      "inputs": [],
      "name": "holder",
      "outputs": [
        {
          "name": "",
          "type": "address"
        }
      ],
      "payable": false,
      "stateMutability": "view",
      "type": "function"
    },
    {
      "inputs": [
        {
          "name": "_TVContract",
          "type": "address"
        },
        {
          "name": "_deusContract",
          "type": "address"
        },
        {
          "name": "_holder",
          "type": "address"
        },
        {
          "name": "_deusToTVRate",
          "type": "uint256"
        }
      ],
      "payable": false,
      "stateMutability": "nonpayable",
      "type": "constructor"
    },
    {
      "anonymous": false,
      "inputs": [
        {
          "indexed": false,
          "name": "deusTokenId",
          "type": "uint256"
        },
        {
          "indexed": false,
          "name": "sender",
          "type": "address"
        },
        {
          "indexed": false,
          "name": "holder",
          "type": "address"
        },
        {
          "indexed": false,
          "name": "collectTVs",
          "type": "uint256"
        }
      ],
      "name": "AirDropped",
      "type": "event"
    },
    {
      "constant": false,
      "inputs": [],
      "name": "getTVs",
      "outputs": [],
      "payable": false,
      "stateMutability": "nonpayable",
      "type": "function"
    }
  ],
  "bytecode": "0x608060405234801561001057600080fd5b506040516080806108c383398101806040528101908080519060200190929190805190602001909291908051906020019092919080519060200190929190505050826000806101000a81548173ffffffffffffffffffffffffffffffffffffffff021916908373ffffffffffffffffffffffffffffffffffffffff16021790555083600160006101000a81548173ffffffffffffffffffffffffffffffffffffffff021916908373ffffffffffffffffffffffffffffffffffffffff1602179055508060028190555081600360006101000a81548173ffffffffffffffffffffffffffffffffffffffff021916908373ffffffffffffffffffffffffffffffffffffffff160217905550505050506107968061012d6000396000f30060806040526004361061006d576000357c0100000000000000000000000000000000000000000000000000000000900463ffffffff1680636d2ba2f7146100725780637eef6a0614610089578063883dc8ac146100b4578063d54c70991461010b578063e534155d14610162575b600080fd5b34801561007e57600080fd5b506100876101b9565b005b34801561009557600080fd5b5061009e6106f3565b6040518082815260200191505060405180910390f35b3480156100c057600080fd5b506100c96106f9565b604051808273ffffffffffffffffffffffffffffffffffffffff1673ffffffffffffffffffffffffffffffffffffffff16815260200191505060405180910390f35b34801561011757600080fd5b5061012061071e565b604051808273ffffffffffffffffffffffffffffffffffffffff1673ffffffffffffffffffffffffffffffffffffffff16815260200191505060405180910390f35b34801561016e57600080fd5b50610177610744565b604051808273ffffffffffffffffffffffffffffffffffffffff1673ffffffffffffffffffffffffffffffffffffffff16815260200191505060405180910390f35b6000806000806000809054906101000a900473ffffffffffffffffffffffffffffffffffffffff1673ffffffffffffffffffffffffffffffffffffffff166370a08231336040518263ffffffff167c0100000000000000000000000000000000000000000000000000000000028152600401808273ffffffffffffffffffffffffffffffffffffffff1673ffffffffffffffffffffffffffffffffffffffff168152602001915050602060405180830381600087803b15801561027b57600080fd5b505af115801561028f573d6000803e3d6000fd5b505050506040513d60208110156102a557600080fd5b81019080805190602001909291905050509350600092505b838360ff1610156106ed576000809054906101000a900473ffffffffffffffffffffffffffffffffffffffff1673ffffffffffffffffffffffffffffffffffffffff16632f745c5933856040518363ffffffff167c0100000000000000000000000000000000000000000000000000000000028152600401808373ffffffffffffffffffffffffffffffffffffffff1673ffffffffffffffffffffffffffffffffffffffff1681526020018260ff16815260200192505050602060405180830381600087803b15801561038f57600080fd5b505af11580156103a3573d6000803e3d6000fd5b505050506040513d60208110156103b957600080fd5b810190808051906020019092919050505091506004600083815260200190815260200160002060009054906101000a900460ff1615156106e05760016004600084815260200190815260200160002060006101000a81548160ff021916908315150217905550600160009054906101000a900473ffffffffffffffffffffffffffffffffffffffff1673ffffffffffffffffffffffffffffffffffffffff166323b872dd600360009054906101000a900473ffffffffffffffffffffffffffffffffffffffff16336002546040518463ffffffff167c0100000000000000000000000000000000000000000000000000000000028152600401808473ffffffffffffffffffffffffffffffffffffffff1673ffffffffffffffffffffffffffffffffffffffff1681526020018373ffffffffffffffffffffffffffffffffffffffff1673ffffffffffffffffffffffffffffffffffffffff1681526020018281526020019350505050602060405180830381600087803b15801561053c57600080fd5b505af1158015610550573d6000803e3d6000fd5b505050506040513d602081101561056657600080fd5b81019080805190602001909291905050509050801515610614576040517f08c379a00000000000000000000000000000000000000000000000000000000081526004018080602001828103825260268152602001807f5472616e736665722066726f6d20686f6c64657220746f2073656e646572206681526020017f61696c65642e000000000000000000000000000000000000000000000000000081525060400191505060405180910390fd5b7faf812c642a1492a8904d3dcd81c9479a2a7bfd4b5456ea7ec1d9023ea87d00dc8233600360009054906101000a900473ffffffffffffffffffffffffffffffffffffffff16600254604051808581526020018473ffffffffffffffffffffffffffffffffffffffff1673ffffffffffffffffffffffffffffffffffffffff1681526020018373ffffffffffffffffffffffffffffffffffffffff1673ffffffffffffffffffffffffffffffffffffffff16815260200182815260200194505050505060405180910390a15b82806001019350506102bd565b50505050565b60025481565b6000809054906101000a900473ffffffffffffffffffffffffffffffffffffffff1681565b600160009054906101000a900473ffffffffffffffffffffffffffffffffffffffff1681565b600360009054906101000a900473ffffffffffffffffffffffffffffffffffffffff16815600a165627a7a72305820268aaea856667d2c77b868c079c85c4d57d0582dd020de573d139fb0110056290029",
  "source": "pragma solidity 0.4.24;\n\nimport 'zeppelin-solidity/contracts/token/ERC721/ERC721.sol';\nimport 'zeppelin-solidity/contracts/token/ERC20/ERC20.sol';\n\ncontract TVAirDrop {\n    ERC721 public deusContract;\n    ERC20 public TVContract;\n    uint256 public deusToTVRate;\n    address public holder;\n\n    mapping(uint256 => bool) internal droppedTokens;\n\n    event AirDropped(uint256 deusTokenId, address sender, address holder, uint256 collectTVs);\n\n    function TVAirDrop(address _TVContract, address _deusContract, address _holder, uint256 _deusToTVRate) public {\n        deusContract = ERC721(_deusContract);\n        TVContract = ERC20(_TVContract);\n        deusToTVRate = _deusToTVRate;\n        holder = _holder;\n    }\n\n    function getTVs() public {\n        uint256 deusTokenCount = deusContract.balanceOf(msg.sender);\n        for (uint8 i = 0; i < deusTokenCount; i++) {\n            uint256 deusToken = deusContract.tokenOfOwnerByIndex(msg.sender, i);\n            if (!droppedTokens[deusToken]) {\n                droppedTokens[deusToken] = true;\n                bool successful = TVContract.transferFrom(holder, msg.sender, deusToTVRate);\n                if (!successful) revert(\"Transfer from holder to sender failed.\");\n                emit AirDropped(deusToken, msg.sender, holder, deusToTVRate);\n            }\n        }\n    }\n}\n",
  "sourcePath": "/Users/user/Projects/tvtoken/contracts/TVAirDrop.sol",
  "compiler": {
    "name": "solc",
    "version": "0.4.24+commit.e67f0147.Emscripten.clang"
  },
  "schemaVersion": "2.0.0",
  "updatedAt": "2018-08-21T11:18:24.110Z"
}