{
  "contractName": "TVComics",
  "abi": [
    {
      "constant": true,
      "inputs": [],
      "name": "name",
      "outputs": [
        {
          "name": "",
          "type": "string"
        }
      ],
      "payable": false,
      "stateMutability": "view",
      "type": "function"
    },
    {
      "constant": true,
      "inputs": [
        {
          "name": "_tokenId",
          "type": "uint256"
        }
      ],
      "name": "getApproved",
      "outputs": [
        {
          "name": "",
          "type": "address"
        }
      ],
      "payable": false,
      "stateMutability": "view",
      "type": "function"
    },
    {
      "constant": false,
      "inputs": [
        {
          "name": "_to",
          "type": "address"
        },
        {
          "name": "_tokenId",
          "type": "uint256"
        }
      ],
      "name": "approve",
      "outputs": [],
      "payable": false,
      "stateMutability": "nonpayable",
      "type": "function"
    },
    {
      "constant": true,
      "inputs": [],
      "name": "totalSupply",
      "outputs": [
        {
          "name": "",
          "type": "uint256"
        }
      ],
      "payable": false,
      "stateMutability": "view",
      "type": "function"
    },
    {
      "constant": false,
      "inputs": [
        {
          "name": "_from",
          "type": "address"
        },
        {
          "name": "_to",
          "type": "address"
        },
        {
          "name": "_tokenId",
          "type": "uint256"
        }
      ],
      "name": "transferFrom",
      "outputs": [],
      "payable": false,
      "stateMutability": "nonpayable",
      "type": "function"
    },
    {
      "constant": true,
      "inputs": [
        {
          "name": "_owner",
          "type": "address"
        },
        {
          "name": "_index",
          "type": "uint256"
        }
      ],
      "name": "tokenOfOwnerByIndex",
      "outputs": [
        {
          "name": "",
          "type": "uint256"
        }
      ],
      "payable": false,
      "stateMutability": "view",
      "type": "function"
    },
    {
      "constant": true,
      "inputs": [
        {
          "name": "",
          "type": "uint256"
        }
      ],
      "name": "comicsMap",
      "outputs": [
        {
          "name": "id",
          "type": "uint256"
        },
        {
          "name": "typeId",
          "type": "uint256"
        }
      ],
      "payable": false,
      "stateMutability": "view",
      "type": "function"
    },
    {
      "constant": true,
      "inputs": [],
      "name": "TVTokenAddress",
      "outputs": [
        {
          "name": "",
          "type": "address"
        }
      ],
      "payable": false,
      "stateMutability": "view",
      "type": "function"
    },
    {
      "constant": false,
      "inputs": [
        {
          "name": "_from",
          "type": "address"
        },
        {
          "name": "_to",
          "type": "address"
        },
        {
          "name": "_tokenId",
          "type": "uint256"
        }
      ],
      "name": "safeTransferFrom",
      "outputs": [],
      "payable": false,
      "stateMutability": "nonpayable",
      "type": "function"
    },
    {
      "constant": true,
      "inputs": [],
      "name": "manager",
      "outputs": [
        {
          "name": "",
          "type": "address"
        }
      ],
      "payable": false,
      "stateMutability": "view",
      "type": "function"
    },
    {
      "constant": true,
      "inputs": [
        {
          "name": "_tokenId",
          "type": "uint256"
        }
      ],
      "name": "exists",
      "outputs": [
        {
          "name": "",
          "type": "bool"
        }
      ],
      "payable": false,
      "stateMutability": "view",
      "type": "function"
    },
    {
      "constant": true,
      "inputs": [
        {
          "name": "_index",
          "type": "uint256"
        }
      ],
      "name": "tokenByIndex",
      "outputs": [
        {
          "name": "",
          "type": "uint256"
        }
      ],
      "payable": false,
      "stateMutability": "view",
      "type": "function"
    },
    {
      "constant": true,
      "inputs": [],
      "name": "wallet",
      "outputs": [
        {
          "name": "",
          "type": "address"
        }
      ],
      "payable": false,
      "stateMutability": "view",
      "type": "function"
    },
    {
      "constant": true,
      "inputs": [
        {
          "name": "_tokenId",
          "type": "uint256"
        }
      ],
      "name": "ownerOf",
      "outputs": [
        {
          "name": "",
          "type": "address"
        }
      ],
      "payable": false,
      "stateMutability": "view",
      "type": "function"
    },
    {
      "constant": true,
      "inputs": [
        {
          "name": "_owner",
          "type": "address"
        }
      ],
      "name": "balanceOf",
      "outputs": [
        {
          "name": "",
          "type": "uint256"
        }
      ],
      "payable": false,
      "stateMutability": "view",
      "type": "function"
    },
    {
      "constant": true,
      "inputs": [],
      "name": "owner",
      "outputs": [
        {
          "name": "",
          "type": "address"
        }
      ],
      "payable": false,
      "stateMutability": "view",
      "type": "function"
    },
    {
      "constant": true,
      "inputs": [],
      "name": "symbol",
      "outputs": [
        {
          "name": "",
          "type": "string"
        }
      ],
      "payable": false,
      "stateMutability": "view",
      "type": "function"
    },
    {
      "constant": false,
      "inputs": [
        {
          "name": "_to",
          "type": "address"
        },
        {
          "name": "_approved",
          "type": "bool"
        }
      ],
      "name": "setApprovalForAll",
      "outputs": [],
      "payable": false,
      "stateMutability": "nonpayable",
      "type": "function"
    },
    {
      "constant": false,
      "inputs": [
        {
          "name": "_from",
          "type": "address"
        },
        {
          "name": "_to",
          "type": "address"
        },
        {
          "name": "_tokenId",
          "type": "uint256"
        },
        {
          "name": "_data",
          "type": "bytes"
        }
      ],
      "name": "safeTransferFrom",
      "outputs": [],
      "payable": false,
      "stateMutability": "nonpayable",
      "type": "function"
    },
    {
      "constant": true,
      "inputs": [
        {
          "name": "_tokenId",
          "type": "uint256"
        }
      ],
      "name": "tokenURI",
      "outputs": [
        {
          "name": "",
          "type": "string"
        }
      ],
      "payable": false,
      "stateMutability": "view",
      "type": "function"
    },
    {
      "constant": true,
      "inputs": [
        {
          "name": "",
          "type": "uint256"
        }
      ],
      "name": "comicsTypesMap",
      "outputs": [
        {
          "name": "id",
          "type": "uint256"
        },
        {
          "name": "price",
          "type": "uint256"
        }
      ],
      "payable": false,
      "stateMutability": "view",
      "type": "function"
    },
    {
      "constant": true,
      "inputs": [
        {
          "name": "_owner",
          "type": "address"
        },
        {
          "name": "_operator",
          "type": "address"
        }
      ],
      "name": "isApprovedForAll",
      "outputs": [
        {
          "name": "",
          "type": "bool"
        }
      ],
      "payable": false,
      "stateMutability": "view",
      "type": "function"
    },
    {
      "constant": true,
      "inputs": [],
      "name": "TVCrowdsaleAddress",
      "outputs": [
        {
          "name": "",
          "type": "address"
        }
      ],
      "payable": false,
      "stateMutability": "view",
      "type": "function"
    },
    {
      "constant": false,
      "inputs": [
        {
          "name": "newOwner",
          "type": "address"
        }
      ],
      "name": "transferOwnership",
      "outputs": [],
      "payable": false,
      "stateMutability": "nonpayable",
      "type": "function"
    },
    {
      "inputs": [
        {
          "name": "_TVTokenAddress",
          "type": "address"
        },
        {
          "name": "_TVCrowdsaleAddress",
          "type": "address"
        },
        {
          "name": "_manager",
          "type": "address"
        },
        {
          "name": "_wallet",
          "type": "address"
        }
      ],
      "payable": false,
      "stateMutability": "nonpayable",
      "type": "constructor"
    },
    {
      "anonymous": false,
      "inputs": [
        {
          "indexed": false,
          "name": "from",
          "type": "address"
        },
        {
          "indexed": false,
          "name": "value",
          "type": "uint256"
        },
        {
          "indexed": false,
          "name": "data",
          "type": "bytes"
        },
        {
          "indexed": false,
          "name": "typeId",
          "type": "uint256"
        }
      ],
      "name": "TokenReceived",
      "type": "event"
    },
    {
      "anonymous": false,
      "inputs": [
        {
          "indexed": false,
          "name": "buyer",
          "type": "address"
        },
        {
          "indexed": false,
          "name": "rate",
          "type": "uint256"
        },
        {
          "indexed": false,
          "name": "price",
          "type": "uint256"
        },
        {
          "indexed": false,
          "name": "typeId",
          "type": "uint256"
        }
      ],
      "name": "ChangeAndBuy",
      "type": "event"
    },
    {
      "anonymous": false,
      "inputs": [
        {
          "indexed": true,
          "name": "_from",
          "type": "address"
        },
        {
          "indexed": true,
          "name": "_to",
          "type": "address"
        },
        {
          "indexed": false,
          "name": "_tokenId",
          "type": "uint256"
        }
      ],
      "name": "Transfer",
      "type": "event"
    },
    {
      "anonymous": false,
      "inputs": [
        {
          "indexed": true,
          "name": "_owner",
          "type": "address"
        },
        {
          "indexed": true,
          "name": "_approved",
          "type": "address"
        },
        {
          "indexed": false,
          "name": "_tokenId",
          "type": "uint256"
        }
      ],
      "name": "Approval",
      "type": "event"
    },
    {
      "anonymous": false,
      "inputs": [
        {
          "indexed": true,
          "name": "_owner",
          "type": "address"
        },
        {
          "indexed": true,
          "name": "_operator",
          "type": "address"
        },
        {
          "indexed": false,
          "name": "_approved",
          "type": "bool"
        }
      ],
      "name": "ApprovalForAll",
      "type": "event"
    },
    {
      "anonymous": false,
      "inputs": [
        {
          "indexed": true,
          "name": "previousOwner",
          "type": "address"
        },
        {
          "indexed": true,
          "name": "newOwner",
          "type": "address"
        }
      ],
      "name": "OwnershipTransferred",
      "type": "event"
    },
    {
      "constant": false,
      "inputs": [
        {
          "name": "to",
          "type": "address"
        },
        {
          "name": "typeId",
          "type": "uint256"
        }
      ],
      "name": "mint",
      "outputs": [],
      "payable": false,
      "stateMutability": "nonpayable",
      "type": "function"
    },
    {
      "constant": false,
      "inputs": [
        {
          "name": "tokenId",
          "type": "uint256"
        }
      ],
      "name": "burn",
      "outputs": [],
      "payable": false,
      "stateMutability": "nonpayable",
      "type": "function"
    },
    {
      "constant": false,
      "inputs": [
        {
          "name": "id",
          "type": "uint256"
        },
        {
          "name": "price",
          "type": "uint256"
        }
      ],
      "name": "setComicsType",
      "outputs": [],
      "payable": false,
      "stateMutability": "nonpayable",
      "type": "function"
    },
    {
      "constant": false,
      "inputs": [
        {
          "name": "typeId",
          "type": "uint256"
        }
      ],
      "name": "changeAndBuy",
      "outputs": [],
      "payable": true,
      "stateMutability": "payable",
      "type": "function"
    },
    {
      "constant": false,
      "inputs": [
        {
          "name": "_from",
          "type": "address"
        },
        {
          "name": "_value",
          "type": "uint256"
        },
        {
          "name": "_data",
          "type": "bytes"
        }
      ],
      "name": "onTokenReceived",
      "outputs": [
        {
          "name": "",
          "type": "bytes4"
        }
      ],
      "payable": false,
      "stateMutability": "nonpayable",
      "type": "function"
    },
    {
      "constant": false,
      "inputs": [
        {
          "name": "_wallet",
          "type": "address"
        }
      ],
      "name": "changeWallet",
      "outputs": [],
      "payable": false,
      "stateMutability": "nonpayable",
      "type": "function"
    },
    {
      "constant": false,
      "inputs": [
        {
          "name": "newAddress",
          "type": "address"
        }
      ],
      "name": "changeTVTokenAddress",
      "outputs": [],
      "payable": false,
      "stateMutability": "nonpayable",
      "type": "function"
    },
    {
      "constant": false,
      "inputs": [
        {
          "name": "newAddress",
          "type": "address"
        }
      ],
      "name": "changeTVCrowdsaleAddress",
      "outputs": [],
      "payable": false,
      "stateMutability": "nonpayable",
      "type": "function"
    },
    {
      "constant": false,
      "inputs": [
        {
          "name": "_manager",
          "type": "address"
        }
      ],
      "name": "setManager",
      "outputs": [],
      "payable": false,
      "stateMutability": "nonpayable",
      "type": "function"
    }
  ],
  "bytecode": "0x608060405260006010553480156200001657600080fd5b5060405160808062003826833981018060405281019080805190602001909291908051906020019092919080519060200190929190805190602001909291905050506040805190810160405280600e81526020017f5456436f6d69637320546f6b656e0000000000000000000000000000000000008152506040805190810160405280600381526020017f5456430000000000000000000000000000000000000000000000000000000000815250336000806101000a81548173ffffffffffffffffffffffffffffffffffffffff021916908373ffffffffffffffffffffffffffffffffffffffff16021790555081600590805190602001906200011c92919062000246565b5080600690805190602001906200013592919062000246565b50505081600f60006101000a81548173ffffffffffffffffffffffffffffffffffffffff021916908373ffffffffffffffffffffffffffffffffffffffff16021790555080600c60006101000a81548173ffffffffffffffffffffffffffffffffffffffff021916908373ffffffffffffffffffffffffffffffffffffffff16021790555083600d60006101000a81548173ffffffffffffffffffffffffffffffffffffffff021916908373ffffffffffffffffffffffffffffffffffffffff16021790555082600e60006101000a81548173ffffffffffffffffffffffffffffffffffffffff021916908373ffffffffffffffffffffffffffffffffffffffff16021790555050505050620002f5565b828054600181600116156101000203166002900490600052602060002090601f016020900481019282601f106200028957805160ff1916838001178555620002ba565b82800160010185558215620002ba579182015b82811115620002b95782518255916020019190600101906200029c565b5b509050620002c99190620002cd565b5090565b620002f291905b80821115620002ee576000816000905550600101620002d4565b5090565b90565b61352180620003056000396000f3006080604052600436106101a1576000357c0100000000000000000000000000000000000000000000000000000000900463ffffffff16806306fdde03146101a6578063081812fc14610236578063095ea7b3146102a357806318160ddd146102f05780631fcda74c1461031b57806323b872dd146103525780632f745c59146103bf5780633e5d21841461042057806340c10f191461046857806341108659146104b557806342842e0e1461050c57806342966c6814610579578063481c6a75146105a65780634f558e79146105fd5780634f6ccce714610642578063521eb273146106835780636352211e146106da57806370a08231146107475780638da5cb5b1461079e57806395d89b41146107f557806398b9a2dc14610885578063a22cb465146108c8578063aecfd9db14610917578063b88d4fde14610937578063bed25542146109ea578063c87b56dd14610acf578063ca236c0514610b75578063d0ebdbe714610bbd578063db7576fc14610c00578063dc68c52c14610c43578063e985e9c514610c86578063f0bb252d14610d01578063f2fde38b14610d58575b600080fd5b3480156101b257600080fd5b506101bb610d9b565b6040518080602001828103825283818151815260200191508051906020019080838360005b838110156101fb5780820151818401526020810190506101e0565b50505050905090810190601f1680156102285780820380516001836020036101000a031916815260200191505b509250505060405180910390f35b34801561024257600080fd5b5061026160048036038101908080359060200190929190505050610e3d565b604051808273ffffffffffffffffffffffffffffffffffffffff1673ffffffffffffffffffffffffffffffffffffffff16815260200191505060405180910390f35b3480156102af57600080fd5b506102ee600480360381019080803573ffffffffffffffffffffffffffffffffffffffff16906020019092919080359060200190929190505050610e7a565b005b3480156102fc57600080fd5b50610305611040565b6040518082815260200191505060405180910390f35b34801561032757600080fd5b50610350600480360381019080803590602001909291908035906020019092919050505061104d565b005b34801561035e57600080fd5b506103bd600480360381019080803573ffffffffffffffffffffffffffffffffffffffff169060200190929190803573ffffffffffffffffffffffffffffffffffffffff16906020019092919080359060200190929190505050611143565b005b3480156103cb57600080fd5b5061040a600480360381019080803573ffffffffffffffffffffffffffffffffffffffff1690602001909291908035906020019092919050505061125a565b6040518082815260200191505060405180910390f35b34801561042c57600080fd5b5061044b600480360381019080803590602001909291905050506112d1565b604051808381526020018281526020019250505060405180910390f35b34801561047457600080fd5b506104b3600480360381019080803573ffffffffffffffffffffffffffffffffffffffff169060200190929190803590602001909291905050506112f5565b005b3480156104c157600080fd5b506104ca61140d565b604051808273ffffffffffffffffffffffffffffffffffffffff1673ffffffffffffffffffffffffffffffffffffffff16815260200191505060405180910390f35b34801561051857600080fd5b50610577600480360381019080803573ffffffffffffffffffffffffffffffffffffffff169060200190929190803573ffffffffffffffffffffffffffffffffffffffff16906020019092919080359060200190929190505050611433565b005b34801561058557600080fd5b506105a46004803603810190808035906020019092919050505061146b565b005b3480156105b257600080fd5b506105bb6114e2565b604051808273ffffffffffffffffffffffffffffffffffffffff1673ffffffffffffffffffffffffffffffffffffffff16815260200191505060405180910390f35b34801561060957600080fd5b5061062860048036038101908080359060200190929190505050611508565b604051808215151515815260200191505060405180910390f35b34801561064e57600080fd5b5061066d6004803603810190808035906020019092919050505061157a565b6040518082815260200191505060405180910390f35b34801561068f57600080fd5b506106986115b2565b604051808273ffffffffffffffffffffffffffffffffffffffff1673ffffffffffffffffffffffffffffffffffffffff16815260200191505060405180910390f35b3480156106e657600080fd5b50610705600480360381019080803590602001909291905050506115d8565b604051808273ffffffffffffffffffffffffffffffffffffffff1673ffffffffffffffffffffffffffffffffffffffff16815260200191505060405180910390f35b34801561075357600080fd5b50610788600480360381019080803573ffffffffffffffffffffffffffffffffffffffff169060200190929190505050611656565b6040518082815260200191505060405180910390f35b3480156107aa57600080fd5b506107b36116da565b604051808273ffffffffffffffffffffffffffffffffffffffff1673ffffffffffffffffffffffffffffffffffffffff16815260200191505060405180910390f35b34801561080157600080fd5b5061080a6116ff565b6040518080602001828103825283818151815260200191508051906020019080838360005b8381101561084a57808201518184015260208101905061082f565b50505050905090810190601f1680156108775780820380516001836020036101000a031916815260200191505b509250505060405180910390f35b34801561089157600080fd5b506108c6600480360381019080803573ffffffffffffffffffffffffffffffffffffffff1690602001909291905050506117a1565b005b3480156108d457600080fd5b50610915600480360381019080803573ffffffffffffffffffffffffffffffffffffffff169060200190929190803515159060200190929190505050611898565b005b610935600480360381019080803590602001909291905050506119d4565b005b34801561094357600080fd5b506109e8600480360381019080803573ffffffffffffffffffffffffffffffffffffffff169060200190929190803573ffffffffffffffffffffffffffffffffffffffff16906020019092919080359060200190929190803590602001908201803590602001908080601f0160208091040260200160405190810160405280939291908181526020018383808284378201915050505050509192919290505050611df6565b005b3480156109f657600080fd5b50610a7b600480360381019080803573ffffffffffffffffffffffffffffffffffffffff16906020019092919080359060200190929190803590602001908201803590602001908080601f0160208091040260200160405190810160405280939291908181526020018383808284378201915050505050509192919290505050611e35565b60405180827bffffffffffffffffffffffffffffffffffffffffffffffffffffffff19167bffffffffffffffffffffffffffffffffffffffffffffffffffffffff1916815260200191505060405180910390f35b348015610adb57600080fd5b50610afa60048036038101908080359060200190929190505050612202565b6040518080602001828103825283818151815260200191508051906020019080838360005b83811015610b3a578082015181840152602081019050610b1f565b50505050905090810190601f168015610b675780820380516001836020036101000a031916815260200191505b509250505060405180910390f35b348015610b8157600080fd5b50610ba0600480360381019080803590602001909291905050506122cb565b604051808381526020018281526020019250505060405180910390f35b348015610bc957600080fd5b50610bfe600480360381019080803573ffffffffffffffffffffffffffffffffffffffff1690602001909291905050506122ef565b005b348015610c0c57600080fd5b50610c41600480360381019080803573ffffffffffffffffffffffffffffffffffffffff16906020019092919050505061238e565b005b348015610c4f57600080fd5b50610c84600480360381019080803573ffffffffffffffffffffffffffffffffffffffff169060200190929190505050612485565b005b348015610c9257600080fd5b50610ce7600480360381019080803573ffffffffffffffffffffffffffffffffffffffff169060200190929190803573ffffffffffffffffffffffffffffffffffffffff16906020019092919050505061257c565b604051808215151515815260200191505060405180910390f35b348015610d0d57600080fd5b50610d16612610565b604051808273ffffffffffffffffffffffffffffffffffffffff1673ffffffffffffffffffffffffffffffffffffffff16815260200191505060405180910390f35b348015610d6457600080fd5b50610d99600480360381019080803573ffffffffffffffffffffffffffffffffffffffff169060200190929190505050612636565b005b606060058054600181600116156101000203166002900480601f016020809104026020016040519081016040528092919081815260200182805460018160011615610100020316600290048015610e335780601f10610e0857610100808354040283529160200191610e33565b820191906000526020600020905b815481529060010190602001808311610e1657829003601f168201915b5050505050905090565b60006002600083815260200190815260200160002060009054906101000a900473ffffffffffffffffffffffffffffffffffffffff169050919050565b6000610e85826115d8565b90508073ffffffffffffffffffffffffffffffffffffffff168373ffffffffffffffffffffffffffffffffffffffff1614151515610ec257600080fd5b8073ffffffffffffffffffffffffffffffffffffffff163373ffffffffffffffffffffffffffffffffffffffff161480610f025750610f01813361257c565b5b1515610f0d57600080fd5b600073ffffffffffffffffffffffffffffffffffffffff16610f2e83610e3d565b73ffffffffffffffffffffffffffffffffffffffff16141580610f7e5750600073ffffffffffffffffffffffffffffffffffffffff168373ffffffffffffffffffffffffffffffffffffffff1614155b1561103b57826002600084815260200190815260200160002060006101000a81548173ffffffffffffffffffffffffffffffffffffffff021916908373ffffffffffffffffffffffffffffffffffffffff1602179055508273ffffffffffffffffffffffffffffffffffffffff168173ffffffffffffffffffffffffffffffffffffffff167f8c5be1e5ebec7d5bd14f71427d1e84f3dd0314c0f7b2291e5b200ac8c7c3b925846040518082815260200191505060405180910390a35b505050565b6000600980549050905090565b6000809054906101000a900473ffffffffffffffffffffffffffffffffffffffff1673ffffffffffffffffffffffffffffffffffffffff163373ffffffffffffffffffffffffffffffffffffffff1614806110f557503373ffffffffffffffffffffffffffffffffffffffff16600f60009054906101000a900473ffffffffffffffffffffffffffffffffffffffff1673ffffffffffffffffffffffffffffffffffffffff16145b151561110057600080fd5b6040805190810160405280838152602001828152506013600084815260200190815260200160002060008201518160000155602082015181600101559050505050565b8061114e338261278b565b151561115957600080fd5b600073ffffffffffffffffffffffffffffffffffffffff168473ffffffffffffffffffffffffffffffffffffffff161415151561119557600080fd5b600073ffffffffffffffffffffffffffffffffffffffff168373ffffffffffffffffffffffffffffffffffffffff16141515156111d157600080fd5b6111db8483612820565b6111e58483612989565b6111ef8383612ba1565b8273ffffffffffffffffffffffffffffffffffffffff168473ffffffffffffffffffffffffffffffffffffffff167fddf252ad1be2c89b69c2b068fc378daa952ba7f163c4a11628f55a4df523b3ef846040518082815260200191505060405180910390a350505050565b600061126583611656565b8210151561127257600080fd5b600760008473ffffffffffffffffffffffffffffffffffffffff1673ffffffffffffffffffffffffffffffffffffffff168152602001908152602001600020828154811015156112be57fe5b9060005260206000200154905092915050565b60126020528060005260406000206000915090508060000154908060010154905082565b6000809054906101000a900473ffffffffffffffffffffffffffffffffffffffff1673ffffffffffffffffffffffffffffffffffffffff163373ffffffffffffffffffffffffffffffffffffffff16148061139d57503373ffffffffffffffffffffffffffffffffffffffff16600f60009054906101000a900473ffffffffffffffffffffffffffffffffffffffff1673ffffffffffffffffffffffffffffffffffffffff16145b15156113a857600080fd5b6010600081548092919060010191905055506113c682601054612c78565b604080519081016040528060105481526020018281525060126000601054815260200190815260200160002060008201518160000155602082015181600101559050505050565b600d60009054906101000a900473ffffffffffffffffffffffffffffffffffffffff1681565b8061143e338261278b565b151561144957600080fd5b6114658484846020604051908101604052806000815250611df6565b50505050565b803373ffffffffffffffffffffffffffffffffffffffff1661148c826115d8565b73ffffffffffffffffffffffffffffffffffffffff161415156114ae57600080fd5b6114b83383612ccf565b60126000838152602001908152602001600020600080820160009055600182016000905550505050565b600f60009054906101000a900473ffffffffffffffffffffffffffffffffffffffff1681565b6000806001600084815260200190815260200160002060009054906101000a900473ffffffffffffffffffffffffffffffffffffffff169050600073ffffffffffffffffffffffffffffffffffffffff168173ffffffffffffffffffffffffffffffffffffffff161415915050919050565b6000611584611040565b8210151561159157600080fd5b6009828154811015156115a057fe5b90600052602060002001549050919050565b600c60009054906101000a900473ffffffffffffffffffffffffffffffffffffffff1681565b6000806001600084815260200190815260200160002060009054906101000a900473ffffffffffffffffffffffffffffffffffffffff169050600073ffffffffffffffffffffffffffffffffffffffff168173ffffffffffffffffffffffffffffffffffffffff161415151561164d57600080fd5b80915050919050565b60008073ffffffffffffffffffffffffffffffffffffffff168273ffffffffffffffffffffffffffffffffffffffff161415151561169357600080fd5b600360008373ffffffffffffffffffffffffffffffffffffffff1673ffffffffffffffffffffffffffffffffffffffff168152602001908152602001600020549050919050565b6000809054906101000a900473ffffffffffffffffffffffffffffffffffffffff1681565b606060068054600181600116156101000203166002900480601f0160208091040260200160405190810160405280929190818152602001828054600181600116156101000203166002900480156117975780601f1061176c57610100808354040283529160200191611797565b820191906000526020600020905b81548152906001019060200180831161177a57829003601f168201915b5050505050905090565b6000809054906101000a900473ffffffffffffffffffffffffffffffffffffffff1673ffffffffffffffffffffffffffffffffffffffff163373ffffffffffffffffffffffffffffffffffffffff16148061184957503373ffffffffffffffffffffffffffffffffffffffff16600f60009054906101000a900473ffffffffffffffffffffffffffffffffffffffff1673ffffffffffffffffffffffffffffffffffffffff16145b151561185457600080fd5b80600c60006101000a81548173ffffffffffffffffffffffffffffffffffffffff021916908373ffffffffffffffffffffffffffffffffffffffff16021790555050565b3373ffffffffffffffffffffffffffffffffffffffff168273ffffffffffffffffffffffffffffffffffffffff16141515156118d357600080fd5b80600460003373ffffffffffffffffffffffffffffffffffffffff1673ffffffffffffffffffffffffffffffffffffffff16815260200190815260200160002060008473ffffffffffffffffffffffffffffffffffffffff1673ffffffffffffffffffffffffffffffffffffffff16815260200190815260200160002060006101000a81548160ff0219169083151502179055508173ffffffffffffffffffffffffffffffffffffffff163373ffffffffffffffffffffffffffffffffffffffff167f17307eab39ab6107e8899845ad3d59bd9653f200f220920489ca2b5937696c3183604051808215151515815260200191505060405180910390a35050565b6000806060600060136000868152602001908152602001600020600101541115156119fe57600080fd5b600e60009054906101000a900473ffffffffffffffffffffffffffffffffffffffff1673ffffffffffffffffffffffffffffffffffffffff1663f9f8bdb76040518163ffffffff167c0100000000000000000000000000000000000000000000000000000000028152600401602060405180830381600087803b158015611a8457600080fd5b505af1158015611a98573d6000803e3d6000fd5b505050506040513d6020811015611aae57600080fd5b81019080805190602001909291905050509250826013600086815260200190815260200160002060010154811515611ae257fe5b0491503482141515611af357600080fd5b600e60009054906101000a900473ffffffffffffffffffffffffffffffffffffffff1673ffffffffffffffffffffffffffffffffffffffff1663ec8ac4d834306040518363ffffffff167c0100000000000000000000000000000000000000000000000000000000028152600401808273ffffffffffffffffffffffffffffffffffffffff1673ffffffffffffffffffffffffffffffffffffffff1681526020019150506000604051808303818588803b158015611bb057600080fd5b505af1158015611bc4573d6000803e3d6000fd5b5050505050611bd284612e07565b905033601160006101000a81548173ffffffffffffffffffffffffffffffffffffffff021916908373ffffffffffffffffffffffffffffffffffffffff160217905550600d60009054906101000a900473ffffffffffffffffffffffffffffffffffffffff1673ffffffffffffffffffffffffffffffffffffffff1663eb795549306013600088815260200190815260200160002060010154846040518463ffffffff167c0100000000000000000000000000000000000000000000000000000000028152600401808473ffffffffffffffffffffffffffffffffffffffff1673ffffffffffffffffffffffffffffffffffffffff16815260200183815260200180602001828103825283818151815260200191508051906020019080838360005b83811015611d0f578082015181840152602081019050611cf4565b50505050905090810190601f168015611d3c5780820380516001836020036101000a031916815260200191505b50945050505050600060405180830381600087803b158015611d5d57600080fd5b505af1158015611d71573d6000803e3d6000fd5b505050507ff5cc223293912bfa9215d925835aaf5e45b7c979f5ef64d234ab8546e55ab20633848487604051808573ffffffffffffffffffffffffffffffffffffffff1673ffffffffffffffffffffffffffffffffffffffff16815260200184815260200183815260200182815260200194505050505060405180910390a150505050565b81611e01338261278b565b1515611e0c57600080fd5b611e17858585611143565b611e2385858585612e4b565b1515611e2e57600080fd5b5050505050565b600080600d60009054906101000a900473ffffffffffffffffffffffffffffffffffffffff1673ffffffffffffffffffffffffffffffffffffffff163373ffffffffffffffffffffffffffffffffffffffff16141515611e9457600080fd5b611e9d83613039565b60019004905060006013600083815260200190815260200160002060010154111515611ec857600080fd5b836013600083815260200190815260200160002060010154141515611eec57600080fd5b600d60009054906101000a900473ffffffffffffffffffffffffffffffffffffffff1673ffffffffffffffffffffffffffffffffffffffff1663a9059cbb600c60009054906101000a900473ffffffffffffffffffffffffffffffffffffffff16866040518363ffffffff167c0100000000000000000000000000000000000000000000000000000000028152600401808373ffffffffffffffffffffffffffffffffffffffff1673ffffffffffffffffffffffffffffffffffffffff16815260200182815260200192505050602060405180830381600087803b158015611fd357600080fd5b505af1158015611fe7573d6000803e3d6000fd5b505050506040513d6020811015611ffd57600080fd5b8101908080519060200190929190505050508473ffffffffffffffffffffffffffffffffffffffff163073ffffffffffffffffffffffffffffffffffffffff1614612048578461206c565b601160009054906101000a900473ffffffffffffffffffffffffffffffffffffffff165b94506000601160006101000a81548173ffffffffffffffffffffffffffffffffffffffff021916908373ffffffffffffffffffffffffffffffffffffffff1602179055506120bc85601054612c78565b7f524c80c58733e169ff976380a0c7f2845b2b9263b1931ebfaf58ca70e6f1c76d85858584604051808573ffffffffffffffffffffffffffffffffffffffff1673ffffffffffffffffffffffffffffffffffffffff16815260200184815260200180602001838152602001828103825284818151815260200191508051906020019080838360005b8381101561215f578082015181840152602081019050612144565b50505050905090810190601f16801561218c5780820380516001836020036101000a031916815260200191505b509550505050505060405180910390a160405180807f6f6e546f6b656e526563656976656428616464726573732c75696e743235362c81526020017f6279746573290000000000000000000000000000000000000000000000000000815250602601905060405180910390209150509392505050565b606061220d82611508565b151561221857600080fd5b600b60008381526020019081526020016000208054600181600116156101000203166002900480601f0160208091040260200160405190810160405280929190818152602001828054600181600116156101000203166002900480156122bf5780601f10612294576101008083540402835291602001916122bf565b820191906000526020600020905b8154815290600101906020018083116122a257829003601f168201915b50505050509050919050565b60136020528060005260406000206000915090508060000154908060010154905082565b6000809054906101000a900473ffffffffffffffffffffffffffffffffffffffff1673ffffffffffffffffffffffffffffffffffffffff163373ffffffffffffffffffffffffffffffffffffffff1614151561234a57600080fd5b80600f60006101000a81548173ffffffffffffffffffffffffffffffffffffffff021916908373ffffffffffffffffffffffffffffffffffffffff16021790555050565b6000809054906101000a900473ffffffffffffffffffffffffffffffffffffffff1673ffffffffffffffffffffffffffffffffffffffff163373ffffffffffffffffffffffffffffffffffffffff16148061243657503373ffffffffffffffffffffffffffffffffffffffff16600f60009054906101000a900473ffffffffffffffffffffffffffffffffffffffff1673ffffffffffffffffffffffffffffffffffffffff16145b151561244157600080fd5b80600e60006101000a81548173ffffffffffffffffffffffffffffffffffffffff021916908373ffffffffffffffffffffffffffffffffffffffff16021790555050565b6000809054906101000a900473ffffffffffffffffffffffffffffffffffffffff1673ffffffffffffffffffffffffffffffffffffffff163373ffffffffffffffffffffffffffffffffffffffff16148061252d57503373ffffffffffffffffffffffffffffffffffffffff16600f60009054906101000a900473ffffffffffffffffffffffffffffffffffffffff1673ffffffffffffffffffffffffffffffffffffffff16145b151561253857600080fd5b80600d60006101000a81548173ffffffffffffffffffffffffffffffffffffffff021916908373ffffffffffffffffffffffffffffffffffffffff16021790555050565b6000600460008473ffffffffffffffffffffffffffffffffffffffff1673ffffffffffffffffffffffffffffffffffffffff16815260200190815260200160002060008373ffffffffffffffffffffffffffffffffffffffff1673ffffffffffffffffffffffffffffffffffffffff16815260200190815260200160002060009054906101000a900460ff16905092915050565b600e60009054906101000a900473ffffffffffffffffffffffffffffffffffffffff1681565b6000809054906101000a900473ffffffffffffffffffffffffffffffffffffffff1673ffffffffffffffffffffffffffffffffffffffff163373ffffffffffffffffffffffffffffffffffffffff1614151561269157600080fd5b600073ffffffffffffffffffffffffffffffffffffffff168173ffffffffffffffffffffffffffffffffffffffff16141515156126cd57600080fd5b8073ffffffffffffffffffffffffffffffffffffffff166000809054906101000a900473ffffffffffffffffffffffffffffffffffffffff1673ffffffffffffffffffffffffffffffffffffffff167f8be0079c531659141344cd1fd0a4f28419497f9722a3daafe3b4186f6b6457e060405160405180910390a3806000806101000a81548173ffffffffffffffffffffffffffffffffffffffff021916908373ffffffffffffffffffffffffffffffffffffffff16021790555050565b600080612797836115d8565b90508073ffffffffffffffffffffffffffffffffffffffff168473ffffffffffffffffffffffffffffffffffffffff16148061280657508373ffffffffffffffffffffffffffffffffffffffff166127ee84610e3d565b73ffffffffffffffffffffffffffffffffffffffff16145b806128175750612816818561257c565b5b91505092915050565b8173ffffffffffffffffffffffffffffffffffffffff16612840826115d8565b73ffffffffffffffffffffffffffffffffffffffff1614151561286257600080fd5b600073ffffffffffffffffffffffffffffffffffffffff166002600083815260200190815260200160002060009054906101000a900473ffffffffffffffffffffffffffffffffffffffff1673ffffffffffffffffffffffffffffffffffffffff161415156129855760006002600083815260200190815260200160002060006101000a81548173ffffffffffffffffffffffffffffffffffffffff021916908373ffffffffffffffffffffffffffffffffffffffff160217905550600073ffffffffffffffffffffffffffffffffffffffff168273ffffffffffffffffffffffffffffffffffffffff167f8c5be1e5ebec7d5bd14f71427d1e84f3dd0314c0f7b2291e5b200ac8c7c3b925836040518082815260200191505060405180910390a35b5050565b6000806000612998858561305d565b60086000858152602001908152602001600020549250612a046001600760008873ffffffffffffffffffffffffffffffffffffffff1673ffffffffffffffffffffffffffffffffffffffff1681526020019081526020016000208054905061318c90919063ffffffff16565b9150600760008673ffffffffffffffffffffffffffffffffffffffff1673ffffffffffffffffffffffffffffffffffffffff16815260200190815260200160002082815481101515612a5257fe5b9060005260206000200154905080600760008773ffffffffffffffffffffffffffffffffffffffff1673ffffffffffffffffffffffffffffffffffffffff16815260200190815260200160002084815481101515612aac57fe5b90600052602060002001819055506000600760008773ffffffffffffffffffffffffffffffffffffffff1673ffffffffffffffffffffffffffffffffffffffff16815260200190815260200160002083815481101515612b0857fe5b9060005260206000200181905550600760008673ffffffffffffffffffffffffffffffffffffffff1673ffffffffffffffffffffffffffffffffffffffff168152602001908152602001600020805480919060019003612b68919061345c565b50600060086000868152602001908152602001600020819055508260086000838152602001908152602001600020819055505050505050565b6000612bad83836131a5565b600760008473ffffffffffffffffffffffffffffffffffffffff1673ffffffffffffffffffffffffffffffffffffffff168152602001908152602001600020805490509050600760008473ffffffffffffffffffffffffffffffffffffffff1673ffffffffffffffffffffffffffffffffffffffff168152602001908152602001600020829080600181540180825580915050906001820390600052602060002001600090919290919091505550806008600084815260200190815260200160002081905550505050565b612c8282826132ff565b600980549050600a60008381526020019081526020016000208190555060098190806001815401808255809150509060018203906000526020600020016000909192909190915055505050565b6000806000612cde85856133af565b6000600b6000868152602001908152602001600020805460018160011615610100020316600290049050141515612d2f57600b60008581526020019081526020016000206000612d2e9190613488565b5b600a6000858152602001908152602001600020549250612d5e600160098054905061318c90919063ffffffff16565b9150600982815481101515612d6f57fe5b9060005260206000200154905080600984815481101515612d8c57fe5b90600052602060002001819055506000600983815481101515612dab57fe5b90600052602060002001819055506009805480919060019003612dce919061345c565b506000600a60008681526020019081526020016000208190555082600a6000838152602001908152602001600020819055505050505050565b606060206040519080825280601f01601f191660200182016040528015612e3d5781602001602082028038833980820191505090505b509050816020820152919050565b600080612e6d8573ffffffffffffffffffffffffffffffffffffffff1661342d565b1515612e7c5760019150613030565b8473ffffffffffffffffffffffffffffffffffffffff1663f0b9e5ba8786866040518463ffffffff167c0100000000000000000000000000000000000000000000000000000000028152600401808473ffffffffffffffffffffffffffffffffffffffff1673ffffffffffffffffffffffffffffffffffffffff16815260200183815260200180602001828103825283818151815260200191508051906020019080838360005b83811015612f3e578082015181840152602081019050612f23565b50505050905090810190601f168015612f6b5780820380516001836020036101000a031916815260200191505b50945050505050602060405180830381600087803b158015612f8c57600080fd5b505af1158015612fa0573d6000803e3d6000fd5b505050506040513d6020811015612fb657600080fd5b8101908080519060200190929190505050905063f0b9e5ba7c0100000000000000000000000000000000000000000000000000000000027bffffffffffffffffffffffffffffffffffffffffffffffffffffffff1916817bffffffffffffffffffffffffffffffffffffffffffffffffffffffff19161491505b50949350505050565b600080825114156130505760006001029050613058565b602082015190505b919050565b8173ffffffffffffffffffffffffffffffffffffffff1661307d826115d8565b73ffffffffffffffffffffffffffffffffffffffff1614151561309f57600080fd5b6130f26001600360008573ffffffffffffffffffffffffffffffffffffffff1673ffffffffffffffffffffffffffffffffffffffff1681526020019081526020016000205461318c90919063ffffffff16565b600360008473ffffffffffffffffffffffffffffffffffffffff1673ffffffffffffffffffffffffffffffffffffffff1681526020019081526020016000208190555060006001600083815260200190815260200160002060006101000a81548173ffffffffffffffffffffffffffffffffffffffff021916908373ffffffffffffffffffffffffffffffffffffffff1602179055505050565b600082821115151561319a57fe5b818303905092915050565b600073ffffffffffffffffffffffffffffffffffffffff166001600083815260200190815260200160002060009054906101000a900473ffffffffffffffffffffffffffffffffffffffff1673ffffffffffffffffffffffffffffffffffffffff1614151561321357600080fd5b816001600083815260200190815260200160002060006101000a81548173ffffffffffffffffffffffffffffffffffffffff021916908373ffffffffffffffffffffffffffffffffffffffff1602179055506132b86001600360008573ffffffffffffffffffffffffffffffffffffffff1673ffffffffffffffffffffffffffffffffffffffff1681526020019081526020016000205461344090919063ffffffff16565b600360008473ffffffffffffffffffffffffffffffffffffffff1673ffffffffffffffffffffffffffffffffffffffff168152602001908152602001600020819055505050565b600073ffffffffffffffffffffffffffffffffffffffff168273ffffffffffffffffffffffffffffffffffffffff161415151561333b57600080fd5b6133458282612ba1565b8173ffffffffffffffffffffffffffffffffffffffff16600073ffffffffffffffffffffffffffffffffffffffff167fddf252ad1be2c89b69c2b068fc378daa952ba7f163c4a11628f55a4df523b3ef836040518082815260200191505060405180910390a35050565b6133b98282612820565b6133c38282612989565b600073ffffffffffffffffffffffffffffffffffffffff168273ffffffffffffffffffffffffffffffffffffffff167fddf252ad1be2c89b69c2b068fc378daa952ba7f163c4a11628f55a4df523b3ef836040518082815260200191505060405180910390a35050565b600080823b905060008111915050919050565b6000818301905082811015151561345357fe5b80905092915050565b8154818355818111156134835781836000526020600020918201910161348291906134d0565b5b505050565b50805460018160011615610100020316600290046000825580601f106134ae57506134cd565b601f0160209004906000526020600020908101906134cc91906134d0565b5b50565b6134f291905b808211156134ee5760008160009055506001016134d6565b5090565b905600a165627a7a7230582012af72e8c8a795169a3113918d8b0b496f7425b0e7cc440be69c84d7637da47d0029",
  "source": "pragma solidity 0.4.24;\n\nimport \"zeppelin-solidity/contracts/ownership/Ownable.sol\";\nimport \"zeppelin-solidity/contracts/token/ERC721/ERC721Token.sol\";\n\ncontract TVCrowdsale {\n    uint256 public currentRate;\n    function buyTokens(address _beneficiary) public payable;\n}\n\ncontract TVToken {\n    function transfer(address _to, uint256 _value) public returns (bool);\n    function safeTransfer(address _to, uint256 _value, bytes _data) public;\n}\n\ncontract TVComics is Ownable, ERC721Token {\n\n    address public wallet;\n    address public TVTokenAddress;\n    address public TVCrowdsaleAddress;\n    address public manager;\n\n    uint internal incrementId = 0;\n    address internal checkAndBuySender;\n    bytes4 constant TOKEN_RECEIVED = bytes4(keccak256(\"onTokenReceived(address,uint256,bytes)\"));\n\n    modifier onlyOwnerOrManager() {\n        require(msg.sender == owner || manager == msg.sender);\n        _;\n    }\n\n    struct Comics {\n        uint id;\n        uint typeId;\n    }\n\n    struct ComicsType {\n        uint id;\n        uint price;\n    }\n\n    mapping(uint => Comics) public comicsMap;\n    mapping(uint => ComicsType) public comicsTypesMap;\n\n    event TokenReceived(address from, uint value, bytes data, uint typeId);\n    event ChangeAndBuy(address buyer, uint rate, uint price, uint typeId);\n\n    constructor(\n        address _TVTokenAddress,\n        address _TVCrowdsaleAddress,\n        address _manager,\n        address _wallet) public ERC721Token(\"TVComics Token\", \"TVC\") {\n\n        manager = _manager;\n        wallet = _wallet;\n        TVTokenAddress = _TVTokenAddress;\n        TVCrowdsaleAddress = _TVCrowdsaleAddress;\n    }\n\n    function mint(address to, uint typeId) public onlyOwnerOrManager {\n        incrementId++;\n        super._mint(to, incrementId);\n        comicsMap[incrementId] = Comics(incrementId, typeId);\n    }\n\n    function burn(uint tokenId) public onlyOwnerOf(tokenId) {\n        super._burn(msg.sender, tokenId);\n        delete comicsMap[tokenId];\n    }\n\n    function setComicsType(uint id, uint price) public onlyOwnerOrManager {\n        comicsTypesMap[id] = ComicsType(id, price);\n    }\n\n    function changeAndBuy(uint typeId) public payable {\n        require(comicsTypesMap[typeId].price > 0);\n        uint rate = TVCrowdsale(TVCrowdsaleAddress).currentRate();\n        uint priceWei = comicsTypesMap[typeId].price / rate;\n        require(priceWei == msg.value);\n\n        TVCrowdsale(TVCrowdsaleAddress).buyTokens.value(msg.value)(this);\n        bytes memory data = toBytes(typeId);\n        checkAndBuySender = msg.sender;\n        TVToken(TVTokenAddress).safeTransfer(this, comicsTypesMap[typeId].price, data);\n\n        emit ChangeAndBuy(msg.sender, rate, priceWei, typeId);\n    }\n\n    function onTokenReceived(address _from, uint256 _value, bytes _data) public returns (bytes4) {\n        require(msg.sender == TVTokenAddress);\n        uint typeId = uint256(convertBytesToBytes32(_data));\n        require(comicsTypesMap[typeId].price > 0);\n        require(comicsTypesMap[typeId].price == _value);\n        TVToken(TVTokenAddress).transfer(wallet, _value);\n        _from = this == _from ? checkAndBuySender : _from;\n        checkAndBuySender = address(0);\n        super._mint(_from, incrementId);\n        emit TokenReceived(_from, _value, _data, typeId);\n        return TOKEN_RECEIVED;\n    }\n\n    function changeWallet(address _wallet) public onlyOwnerOrManager {\n        wallet = _wallet;\n    }\n\n    function changeTVTokenAddress(address newAddress) public onlyOwnerOrManager {\n        TVTokenAddress = newAddress;\n    }\n\n    function changeTVCrowdsaleAddress(address newAddress) public onlyOwnerOrManager {\n        TVCrowdsaleAddress = newAddress;\n    }\n\n    function setManager(address _manager) public onlyOwner {\n        manager = _manager;\n    }\n\n    function convertBytesToBytes32(bytes inBytes) internal pure returns (bytes32 out) {\n        if (inBytes.length == 0) {\n            return 0x0;\n        }\n\n        assembly {\n            out := mload(add(inBytes, 32))\n        }\n    }\n\n    function bytesToUint(bytes32 b) internal pure returns (uint number){\n        for (uint i = 0; i < b.length; i++) {\n            number = number + uint(b[i]) * (2 ** (8 * (b.length - (i + 1))));\n        }\n    }\n\n    function toBytes(uint256 x) internal pure returns (bytes b) {\n        b = new bytes(32);\n        assembly {mstore(add(b, 32), x)}\n    }\n\n}",
  "sourcePath": "/Users/user/Projects/tvtoken/contracts/TVComics.sol",
  "compiler": {
    "name": "solc",
    "version": "0.4.24+commit.e67f0147.Emscripten.clang"
  },
  "schemaVersion": "2.0.0",
  "updatedAt": "2018-10-16T10:04:57.607Z"
}