{
  "contractName": "TVLottery",
  "abi": [
    {
      "constant": true,
      "inputs": [
        {
          "name": "",
          "type": "uint256"
        }
      ],
      "name": "lotteries",
      "outputs": [
        {
          "name": "id",
          "type": "uint256"
        },
        {
          "name": "bank",
          "type": "address"
        },
        {
          "name": "bankPercentage",
          "type": "uint256"
        },
        {
          "name": "isActive",
          "type": "bool"
        },
        {
          "name": "created",
          "type": "bool"
        }
      ],
      "payable": false,
      "stateMutability": "view",
      "type": "function"
    },
    {
      "constant": true,
      "inputs": [
        {
          "name": "",
          "type": "uint256"
        },
        {
          "name": "",
          "type": "address"
        }
      ],
      "name": "usedElements",
      "outputs": [
        {
          "name": "",
          "type": "bool"
        }
      ],
      "payable": false,
      "stateMutability": "view",
      "type": "function"
    },
    {
      "constant": true,
      "inputs": [
        {
          "name": "",
          "type": "uint256"
        }
      ],
      "name": "chests",
      "outputs": [
        {
          "name": "id",
          "type": "uint256"
        },
        {
          "name": "lotteryId",
          "type": "uint256"
        },
        {
          "name": "percentage",
          "type": "uint256"
        },
        {
          "name": "count",
          "type": "uint256"
        },
        {
          "name": "keysCount",
          "type": "uint256"
        },
        {
          "name": "created",
          "type": "bool"
        }
      ],
      "payable": false,
      "stateMutability": "view",
      "type": "function"
    },
    {
      "constant": true,
      "inputs": [],
      "name": "TVTokenAddress",
      "outputs": [
        {
          "name": "",
          "type": "address"
        }
      ],
      "payable": false,
      "stateMutability": "view",
      "type": "function"
    },
    {
      "constant": true,
      "inputs": [],
      "name": "manager",
      "outputs": [
        {
          "name": "",
          "type": "address"
        }
      ],
      "payable": false,
      "stateMutability": "view",
      "type": "function"
    },
    {
      "constant": true,
      "inputs": [],
      "name": "TVKeyAddress",
      "outputs": [
        {
          "name": "",
          "type": "address"
        }
      ],
      "payable": false,
      "stateMutability": "view",
      "type": "function"
    },
    {
      "constant": true,
      "inputs": [],
      "name": "owner",
      "outputs": [
        {
          "name": "",
          "type": "address"
        }
      ],
      "payable": false,
      "stateMutability": "view",
      "type": "function"
    },
    {
      "constant": false,
      "inputs": [
        {
          "name": "newOwner",
          "type": "address"
        }
      ],
      "name": "transferOwnership",
      "outputs": [],
      "payable": false,
      "stateMutability": "nonpayable",
      "type": "function"
    },
    {
      "constant": true,
      "inputs": [
        {
          "name": "",
          "type": "uint256"
        }
      ],
      "name": "collections",
      "outputs": [
        {
          "name": "id",
          "type": "uint256"
        },
        {
          "name": "chestTypeId",
          "type": "uint256"
        },
        {
          "name": "created",
          "type": "bool"
        }
      ],
      "payable": false,
      "stateMutability": "view",
      "type": "function"
    },
    {
      "inputs": [
        {
          "name": "_TVTokenAddress",
          "type": "address"
        },
        {
          "name": "_TVKeyAddress",
          "type": "address"
        },
        {
          "name": "_manager",
          "type": "address"
        }
      ],
      "payable": false,
      "stateMutability": "nonpayable",
      "type": "constructor"
    },
    {
      "anonymous": false,
      "inputs": [
        {
          "indexed": false,
          "name": "keyId",
          "type": "uint256"
        },
        {
          "indexed": false,
          "name": "lotteryId",
          "type": "uint256"
        },
        {
          "indexed": false,
          "name": "collectionId",
          "type": "uint256"
        },
        {
          "indexed": false,
          "name": "chestId",
          "type": "uint256"
        },
        {
          "indexed": false,
          "name": "receiver",
          "type": "address"
        }
      ],
      "name": "KeyReceived",
      "type": "event"
    },
    {
      "anonymous": false,
      "inputs": [
        {
          "indexed": false,
          "name": "keyId",
          "type": "uint256"
        },
        {
          "indexed": false,
          "name": "lotteryId",
          "type": "uint256"
        },
        {
          "indexed": false,
          "name": "chestId",
          "type": "uint256"
        },
        {
          "indexed": false,
          "name": "reward",
          "type": "uint256"
        },
        {
          "indexed": false,
          "name": "receiver",
          "type": "address"
        }
      ],
      "name": "ChestOpened",
      "type": "event"
    },
    {
      "anonymous": false,
      "inputs": [
        {
          "indexed": true,
          "name": "previousOwner",
          "type": "address"
        },
        {
          "indexed": true,
          "name": "newOwner",
          "type": "address"
        }
      ],
      "name": "OwnershipTransferred",
      "type": "event"
    },
    {
      "constant": false,
      "inputs": [
        {
          "name": "_from",
          "type": "address"
        },
        {
          "name": "_tokenId",
          "type": "uint256"
        },
        {
          "name": "",
          "type": "bytes"
        }
      ],
      "name": "onERC721Received",
      "outputs": [
        {
          "name": "",
          "type": "bytes4"
        }
      ],
      "payable": false,
      "stateMutability": "nonpayable",
      "type": "function"
    },
    {
      "constant": true,
      "inputs": [
        {
          "name": "chestId",
          "type": "uint256"
        }
      ],
      "name": "getChestReward",
      "outputs": [
        {
          "name": "",
          "type": "uint256"
        }
      ],
      "payable": false,
      "stateMutability": "view",
      "type": "function"
    },
    {
      "constant": false,
      "inputs": [
        {
          "name": "lotteryId",
          "type": "uint256"
        },
        {
          "name": "collectionId",
          "type": "uint256"
        },
        {
          "name": "elementIds",
          "type": "uint256[]"
        }
      ],
      "name": "getKey",
      "outputs": [
        {
          "name": "",
          "type": "uint256"
        }
      ],
      "payable": false,
      "stateMutability": "nonpayable",
      "type": "function"
    },
    {
      "constant": false,
      "inputs": [
        {
          "name": "id",
          "type": "uint256"
        },
        {
          "name": "typeIds",
          "type": "uint256[]"
        },
        {
          "name": "tokens",
          "type": "address[]"
        },
        {
          "name": "chestTypeId",
          "type": "uint256"
        },
        {
          "name": "created",
          "type": "bool"
        }
      ],
      "name": "setCollection",
      "outputs": [],
      "payable": false,
      "stateMutability": "nonpayable",
      "type": "function"
    },
    {
      "constant": false,
      "inputs": [
        {
          "name": "lotteryId",
          "type": "uint256"
        },
        {
          "name": "id",
          "type": "uint256"
        },
        {
          "name": "percentage",
          "type": "uint256"
        },
        {
          "name": "count",
          "type": "uint256"
        },
        {
          "name": "keysCount",
          "type": "uint256"
        },
        {
          "name": "created",
          "type": "bool"
        }
      ],
      "name": "setChest",
      "outputs": [],
      "payable": false,
      "stateMutability": "nonpayable",
      "type": "function"
    },
    {
      "constant": false,
      "inputs": [
        {
          "name": "id",
          "type": "uint256"
        },
        {
          "name": "bank",
          "type": "address"
        },
        {
          "name": "_collections",
          "type": "uint256[]"
        },
        {
          "name": "_chests",
          "type": "uint256[]"
        },
        {
          "name": "bankPercentage",
          "type": "uint256"
        },
        {
          "name": "isActive",
          "type": "bool"
        },
        {
          "name": "created",
          "type": "bool"
        }
      ],
      "name": "setLottery",
      "outputs": [],
      "payable": false,
      "stateMutability": "nonpayable",
      "type": "function"
    },
    {
      "constant": false,
      "inputs": [
        {
          "name": "lotteryId",
          "type": "uint256"
        },
        {
          "name": "bank",
          "type": "address"
        },
        {
          "name": "bankPercentage",
          "type": "uint256"
        }
      ],
      "name": "changeLotteryBank",
      "outputs": [],
      "payable": false,
      "stateMutability": "nonpayable",
      "type": "function"
    },
    {
      "constant": false,
      "inputs": [
        {
          "name": "lotteryId",
          "type": "uint256"
        },
        {
          "name": "_collections",
          "type": "uint256[]"
        },
        {
          "name": "_chests",
          "type": "uint256[]"
        }
      ],
      "name": "updateCollections",
      "outputs": [],
      "payable": false,
      "stateMutability": "nonpayable",
      "type": "function"
    },
    {
      "constant": false,
      "inputs": [
        {
          "name": "id",
          "type": "uint256"
        },
        {
          "name": "isActive",
          "type": "bool"
        }
      ],
      "name": "setLotteryActive",
      "outputs": [],
      "payable": false,
      "stateMutability": "nonpayable",
      "type": "function"
    },
    {
      "constant": false,
      "inputs": [
        {
          "name": "newAddress",
          "type": "address"
        }
      ],
      "name": "changeTVTokenAddress",
      "outputs": [],
      "payable": false,
      "stateMutability": "nonpayable",
      "type": "function"
    },
    {
      "constant": false,
      "inputs": [
        {
          "name": "newAddress",
          "type": "address"
        }
      ],
      "name": "changeTVKeyAddress",
      "outputs": [],
      "payable": false,
      "stateMutability": "nonpayable",
      "type": "function"
    },
    {
      "constant": false,
      "inputs": [
        {
          "name": "_manager",
          "type": "address"
        }
      ],
      "name": "setManager",
      "outputs": [],
      "payable": false,
      "stateMutability": "nonpayable",
      "type": "function"
    }
  ],
  "bytecode": "0x608060405234801561001057600080fd5b50604051606080612dc5833981018060405281019080805190602001909291908051906020019092919080519060200190929190505050336000806101000a81548173ffffffffffffffffffffffffffffffffffffffff021916908373ffffffffffffffffffffffffffffffffffffffff16021790555080600160006101000a81548173ffffffffffffffffffffffffffffffffffffffff021916908373ffffffffffffffffffffffffffffffffffffffff16021790555082600260006101000a81548173ffffffffffffffffffffffffffffffffffffffff021916908373ffffffffffffffffffffffffffffffffffffffff16021790555081600360006101000a81548173ffffffffffffffffffffffffffffffffffffffff021916908373ffffffffffffffffffffffffffffffffffffffff160217905550505050612c698061015c6000396000f30060806040526004361061011d576000357c0100000000000000000000000000000000000000000000000000000000900463ffffffff16806309515cd61461012257806310cd3f0a14610179578063115a9d0d146101ba5780631398e076146101f35780631482431c14610284578063215b77ce1461034d57806332a4cc051461040057806336541cc51461046557806341108659146104cd578063481c6a75146105245780634e96863d1461057b57806365f04559146105d25780637730a1c2146106c75780638da5cb5b14610728578063d0ebdbe71461077f578063dc68c52c146107c2578063ecea36c114610805578063f0b9e5ba14610848578063f2fde38b1461092d578063fb92ff8a14610970578063fdbda0ec146109fe575b600080fd5b34801561012e57600080fd5b5061017760048036038101908080359060200190929190803573ffffffffffffffffffffffffffffffffffffffff16906020019092919080359060200190929190505050610a51565b005b34801561018557600080fd5b506101a460048036038101908080359060200190929190505050610b79565b6040518082815260200191505060405180910390f35b3480156101c657600080fd5b506101f160048036038101908080359060200190929190803515159060200190929190505050610e96565b005b3480156101ff57600080fd5b5061021e60048036038101908080359060200190929190505050610f7b565b604051808681526020018573ffffffffffffffffffffffffffffffffffffffff1673ffffffffffffffffffffffffffffffffffffffff16815260200184815260200183151515158152602001821515151581526020019550505050505060405180910390f35b34801561029057600080fd5b5061034b60048036038101908080359060200190929190803590602001908201803590602001908080602002602001604051908101604052809392919081815260200183836020028082843782019150505050505091929192908035906020019082018035906020019080806020026020016040519081016040528093929190818152602001838360200280828437820191505050505050919291929080359060200190929190803515159060200190929190505050610feb565b005b34801561035957600080fd5b506103fe600480360381019080803590602001909291908035906020019082018035906020019080806020026020016040519081016040528093929190818152602001838360200280828437820191505050505050919291929080359060200190820180359060200190808060200260200160405190810160405280939291908181526020018383602002808284378201915050505050509192919290505050611163565b005b34801561040c57600080fd5b5061044b60048036038101908080359060200190929190803573ffffffffffffffffffffffffffffffffffffffff169060200190929190505050611281565b604051808215151515815260200191505060405180910390f35b34801561047157600080fd5b50610490600480360381019080803590602001909291905050506112b0565b6040518087815260200186815260200185815260200184815260200183815260200182151515158152602001965050505050505060405180910390f35b3480156104d957600080fd5b506104e26112f9565b604051808273ffffffffffffffffffffffffffffffffffffffff1673ffffffffffffffffffffffffffffffffffffffff16815260200191505060405180910390f35b34801561053057600080fd5b5061053961131f565b604051808273ffffffffffffffffffffffffffffffffffffffff1673ffffffffffffffffffffffffffffffffffffffff16815260200191505060405180910390f35b34801561058757600080fd5b50610590611345565b604051808273ffffffffffffffffffffffffffffffffffffffff1673ffffffffffffffffffffffffffffffffffffffff16815260200191505060405180910390f35b3480156105de57600080fd5b506106c560048036038101908080359060200190929190803573ffffffffffffffffffffffffffffffffffffffff16906020019092919080359060200190820180359060200190808060200260200160405190810160405280939291908181526020018383602002808284378201915050505050509192919290803590602001908201803590602001908080602002602001604051908101604052809392919081815260200183836020028082843782019150505050505091929192908035906020019092919080351515906020019092919080351515906020019092919050505061136b565b005b3480156106d357600080fd5b506107266004803603810190808035906020019092919080359060200190929190803590602001909291908035906020019092919080359060200190929190803515159060200190929190505050611560565b005b34801561073457600080fd5b5061073d6116b3565b604051808273ffffffffffffffffffffffffffffffffffffffff1673ffffffffffffffffffffffffffffffffffffffff16815260200191505060405180910390f35b34801561078b57600080fd5b506107c0600480360381019080803573ffffffffffffffffffffffffffffffffffffffff1690602001909291905050506116d8565b005b3480156107ce57600080fd5b50610803600480360381019080803573ffffffffffffffffffffffffffffffffffffffff169060200190929190505050611777565b005b34801561081157600080fd5b50610846600480360381019080803573ffffffffffffffffffffffffffffffffffffffff16906020019092919050505061186e565b005b34801561085457600080fd5b506108d9600480360381019080803573ffffffffffffffffffffffffffffffffffffffff16906020019092919080359060200190929190803590602001908201803590602001908080601f0160208091040260200160405190810160405280939291908181526020018383808284378201915050505050509192919290505050611965565b60405180827bffffffffffffffffffffffffffffffffffffffffffffffffffffffff19167bffffffffffffffffffffffffffffffffffffffffffffffffffffffff1916815260200191505060405180910390f35b34801561093957600080fd5b5061096e600480360381019080803573ffffffffffffffffffffffffffffffffffffffff169060200190929190505050611f5e565b005b34801561097c57600080fd5b506109e86004803603810190808035906020019092919080359060200190929190803590602001908201803590602001908080602002602001604051908101604052809392919081815260200183836020028082843782019150505050505091929192905050506120b3565b6040518082815260200191505060405180910390f35b348015610a0a57600080fd5b50610a29600480360381019080803590602001909291905050506125fe565b6040518084815260200183815260200182151515158152602001935050505060405180910390f35b6000809054906101000a900473ffffffffffffffffffffffffffffffffffffffff1673ffffffffffffffffffffffffffffffffffffffff163373ffffffffffffffffffffffffffffffffffffffff161480610af957503373ffffffffffffffffffffffffffffffffffffffff16600160009054906101000a900473ffffffffffffffffffffffffffffffffffffffff1673ffffffffffffffffffffffffffffffffffffffff16145b1515610b0457600080fd5b816004600085815260200190815260200160002060010160006101000a81548173ffffffffffffffffffffffffffffffffffffffff021916908373ffffffffffffffffffffffffffffffffffffffff160217905550806004600085815260200190815260200160002060040181905550505050565b6000610b836129ee565b610b8b612a27565b6000806005600087815260200190815260200160002060c0604051908101604052908160008201548152602001600182015481526020016002820154815260200160038201548152602001600482015481526020016005820160009054906101000a900460ff1615151515815250509350600460008560200151815260200190815260200160002060e06040519081016040529081600082015481526020016001820160009054906101000a900473ffffffffffffffffffffffffffffffffffffffff1673ffffffffffffffffffffffffffffffffffffffff1673ffffffffffffffffffffffffffffffffffffffff16815260200160028201805480602002602001604051908101604052809291908181526020018280548015610cce57602002820191906000526020600020905b815481526020019060010190808311610cba575b5050505050815260200160038201805480602002602001604051908101604052809291908181526020018280548015610d2657602002820191906000526020600020905b815481526020019060010190808311610d12575b50505050508152602001600482015481526020016005820160009054906101000a900460ff161515151581526020016005820160019054906101000a900460ff1615151515815250509250600260009054906101000a900473ffffffffffffffffffffffffffffffffffffffff1673ffffffffffffffffffffffffffffffffffffffff166370a0823184602001516040518263ffffffff167c0100000000000000000000000000000000000000000000000000000000028152600401808273ffffffffffffffffffffffffffffffffffffffff1673ffffffffffffffffffffffffffffffffffffffff168152602001915050602060405180830381600087803b158015610e3257600080fd5b505af1158015610e46573d6000803e3d6000fd5b505050506040513d6020811015610e5c57600080fd5b810190808051906020019092919050505091506064836080015183811515610e8057fe5b0402905080846040015102945050505050919050565b6000809054906101000a900473ffffffffffffffffffffffffffffffffffffffff1673ffffffffffffffffffffffffffffffffffffffff163373ffffffffffffffffffffffffffffffffffffffff161480610f3e57503373ffffffffffffffffffffffffffffffffffffffff16600160009054906101000a900473ffffffffffffffffffffffffffffffffffffffff1673ffffffffffffffffffffffffffffffffffffffff16145b1515610f4957600080fd5b806004600084815260200190815260200160002060050160006101000a81548160ff0219169083151502179055505050565b60046020528060005260406000206000915090508060000154908060010160009054906101000a900473ffffffffffffffffffffffffffffffffffffffff16908060040154908060050160009054906101000a900460ff16908060050160019054906101000a900460ff16905085565b6000809054906101000a900473ffffffffffffffffffffffffffffffffffffffff1673ffffffffffffffffffffffffffffffffffffffff163373ffffffffffffffffffffffffffffffffffffffff16148061109357503373ffffffffffffffffffffffffffffffffffffffff16600160009054906101000a900473ffffffffffffffffffffffffffffffffffffffff1673ffffffffffffffffffffffffffffffffffffffff16145b151561109e57600080fd5b825184511415156110ae57600080fd5b60a06040519081016040528086815260200185815260200184815260200183815260200182151581525060066000878152602001908152602001600020600082015181600001556020820151816001019080519060200190611111929190612a7f565b50604082015181600201908051906020019061112e929190612acc565b506060820151816003015560808201518160040160006101000a81548160ff0219169083151502179055509050505050505050565b6000809054906101000a900473ffffffffffffffffffffffffffffffffffffffff1673ffffffffffffffffffffffffffffffffffffffff163373ffffffffffffffffffffffffffffffffffffffff16148061120b57503373ffffffffffffffffffffffffffffffffffffffff16600160009054906101000a900473ffffffffffffffffffffffffffffffffffffffff1673ffffffffffffffffffffffffffffffffffffffff16145b151561121657600080fd5b8151815114151561122657600080fd5b81600460008581526020019081526020016000206002019080519060200190611250929190612b56565b508060046000858152602001908152602001600020600301908051906020019061127b929190612b56565b50505050565b60076020528160005260406000206020528060005260406000206000915091509054906101000a900460ff1681565b60056020528060005260406000206000915090508060000154908060010154908060020154908060030154908060040154908060050160009054906101000a900460ff16905086565b600260009054906101000a900473ffffffffffffffffffffffffffffffffffffffff1681565b600160009054906101000a900473ffffffffffffffffffffffffffffffffffffffff1681565b600360009054906101000a900473ffffffffffffffffffffffffffffffffffffffff1681565b6000809054906101000a900473ffffffffffffffffffffffffffffffffffffffff1673ffffffffffffffffffffffffffffffffffffffff163373ffffffffffffffffffffffffffffffffffffffff16148061141357503373ffffffffffffffffffffffffffffffffffffffff16600160009054906101000a900473ffffffffffffffffffffffffffffffffffffffff1673ffffffffffffffffffffffffffffffffffffffff16145b151561141e57600080fd5b60e0604051908101604052808881526020018773ffffffffffffffffffffffffffffffffffffffff1681526020018681526020018581526020018481526020018315158152602001821515815250600460008981526020019081526020016000206000820151816000015560208201518160010160006101000a81548173ffffffffffffffffffffffffffffffffffffffff021916908373ffffffffffffffffffffffffffffffffffffffff16021790555060408201518160020190805190602001906114ec929190612a7f565b506060820151816003019080519060200190611509929190612a7f565b506080820151816004015560a08201518160050160006101000a81548160ff02191690831515021790555060c08201518160050160016101000a81548160ff02191690831515021790555090505050505050505050565b6000809054906101000a900473ffffffffffffffffffffffffffffffffffffffff1673ffffffffffffffffffffffffffffffffffffffff163373ffffffffffffffffffffffffffffffffffffffff16148061160857503373ffffffffffffffffffffffffffffffffffffffff16600160009054906101000a900473ffffffffffffffffffffffffffffffffffffffff1673ffffffffffffffffffffffffffffffffffffffff16145b151561161357600080fd5b60c06040519081016040528086815260200187815260200185815260200184815260200183815260200182151581525060056000878152602001908152602001600020600082015181600001556020820151816001015560408201518160020155606082015181600301556080820151816004015560a08201518160050160006101000a81548160ff021916908315150217905550905050505050505050565b6000809054906101000a900473ffffffffffffffffffffffffffffffffffffffff1681565b6000809054906101000a900473ffffffffffffffffffffffffffffffffffffffff1673ffffffffffffffffffffffffffffffffffffffff163373ffffffffffffffffffffffffffffffffffffffff1614151561173357600080fd5b80600160006101000a81548173ffffffffffffffffffffffffffffffffffffffff021916908373ffffffffffffffffffffffffffffffffffffffff16021790555050565b6000809054906101000a900473ffffffffffffffffffffffffffffffffffffffff1673ffffffffffffffffffffffffffffffffffffffff163373ffffffffffffffffffffffffffffffffffffffff16148061181f57503373ffffffffffffffffffffffffffffffffffffffff16600160009054906101000a900473ffffffffffffffffffffffffffffffffffffffff1673ffffffffffffffffffffffffffffffffffffffff16145b151561182a57600080fd5b80600260006101000a81548173ffffffffffffffffffffffffffffffffffffffff021916908373ffffffffffffffffffffffffffffffffffffffff16021790555050565b6000809054906101000a900473ffffffffffffffffffffffffffffffffffffffff1673ffffffffffffffffffffffffffffffffffffffff163373ffffffffffffffffffffffffffffffffffffffff16148061191657503373ffffffffffffffffffffffffffffffffffffffff16600160009054906101000a900473ffffffffffffffffffffffffffffffffffffffff1673ffffffffffffffffffffffffffffffffffffffff16145b151561192157600080fd5b80600360006101000a81548173ffffffffffffffffffffffffffffffffffffffff021916908373ffffffffffffffffffffffffffffffffffffffff16021790555050565b6000806119706129ee565b611978612a27565b6000600360009054906101000a900473ffffffffffffffffffffffffffffffffffffffff1673ffffffffffffffffffffffffffffffffffffffff16630cb6aaf1886040518263ffffffff167c0100000000000000000000000000000000000000000000000000000000028152600401808281526020019150506040805180830381600087803b158015611a0a57600080fd5b505af1158015611a1e573d6000803e3d6000fd5b505050506040513d6040811015611a3457600080fd5b8101908080519060200190929190805190602001909291905050509450506005600085815260200190815260200160002060c0604051908101604052908160008201548152602001600182015481526020016002820154815260200160038201548152602001600482015481526020016005820160009054906101000a900460ff1615151515815250509250600460008460200151815260200190815260200160002060e06040519081016040529081600082015481526020016001820160009054906101000a900473ffffffffffffffffffffffffffffffffffffffff1673ffffffffffffffffffffffffffffffffffffffff1673ffffffffffffffffffffffffffffffffffffffff16815260200160028201805480602002602001604051908101604052809291908181526020018280548015611b9257602002820191906000526020600020905b815481526020019060010190808311611b7e575b5050505050815260200160038201805480602002602001604051908101604052809291908181526020018280548015611bea57602002820191906000526020600020905b815481526020019060010190808311611bd6575b50505050508152602001600482015481526020016005820160009054906101000a900460ff161515151581526020016005820160019054906101000a900460ff1615151515815250509150600360009054906101000a900473ffffffffffffffffffffffffffffffffffffffff1673ffffffffffffffffffffffffffffffffffffffff166323b872dd3084602001518a6040518463ffffffff167c0100000000000000000000000000000000000000000000000000000000028152600401808473ffffffffffffffffffffffffffffffffffffffff1673ffffffffffffffffffffffffffffffffffffffff1681526020018373ffffffffffffffffffffffffffffffffffffffff1673ffffffffffffffffffffffffffffffffffffffff1681526020018281526020019350505050600060405180830381600087803b158015611d3257600080fd5b505af1158015611d46573d6000803e3d6000fd5b505050508260400151826080018181510391508181525050611d6784610b79565b9050600260009054906101000a900473ffffffffffffffffffffffffffffffffffffffff1673ffffffffffffffffffffffffffffffffffffffff166323b872dd83602001518a846040518463ffffffff167c0100000000000000000000000000000000000000000000000000000000028152600401808473ffffffffffffffffffffffffffffffffffffffff1673ffffffffffffffffffffffffffffffffffffffff1681526020018373ffffffffffffffffffffffffffffffffffffffff1673ffffffffffffffffffffffffffffffffffffffff1681526020018281526020019350505050602060405180830381600087803b158015611e6657600080fd5b505af1158015611e7a573d6000803e3d6000fd5b505050506040513d6020811015611e9057600080fd5b8101908080519060200190929190505050507f2ddb229cd761483fb835eef30e3eb460ed9bbae358fed998470655b0673fb82e8783600001518560000151848c604051808681526020018581526020018481526020018381526020018273ffffffffffffffffffffffffffffffffffffffff1673ffffffffffffffffffffffffffffffffffffffff1681526020019550505050505060405180910390a163f0b9e5ba7c0100000000000000000000000000000000000000000000000000000000029450505050509392505050565b6000809054906101000a900473ffffffffffffffffffffffffffffffffffffffff1673ffffffffffffffffffffffffffffffffffffffff163373ffffffffffffffffffffffffffffffffffffffff16141515611fb957600080fd5b600073ffffffffffffffffffffffffffffffffffffffff168173ffffffffffffffffffffffffffffffffffffffff1614151515611ff557600080fd5b8073ffffffffffffffffffffffffffffffffffffffff166000809054906101000a900473ffffffffffffffffffffffffffffffffffffffff1673ffffffffffffffffffffffffffffffffffffffff167f8be0079c531659141344cd1fd0a4f28419497f9722a3daafe3b4186f6b6457e060405160405180910390a3806000806101000a81548173ffffffffffffffffffffffffffffffffffffffff021916908373ffffffffffffffffffffffffffffffffffffffff16021790555050565b60006120bd612a27565b6120c5612ba3565b6000806120d06129ee565b6000600460008b815260200190815260200160002060e06040519081016040529081600082015481526020016001820160009054906101000a900473ffffffffffffffffffffffffffffffffffffffff1673ffffffffffffffffffffffffffffffffffffffff1673ffffffffffffffffffffffffffffffffffffffff168152602001600282018054806020026020016040519081016040528092919081815260200182805480156121a057602002820191906000526020600020905b81548152602001906001019080831161218c575b50505050508152602001600382018054806020026020016040519081016040528092919081815260200182805480156121f857602002820191906000526020600020905b8154815260200190600101908083116121e4575b50505050508152602001600482015481526020016005820160009054906101000a900460ff161515151581526020016005820160019054906101000a900460ff1615151515815250509550600660008a815260200190815260200160002060a0604051908101604052908160008201548152602001600182018054806020026020016040519081016040528092919081815260200182805480156122bb57602002820191906000526020600020905b8154815260200190600101908083116122a7575b505050505081526020016002820180548060200260200160405190810160405280929190818152602001828054801561234957602002820191906000526020600020905b8160009054906101000a900473ffffffffffffffffffffffffffffffffffffffff1673ffffffffffffffffffffffffffffffffffffffff16815260200190600101908083116122ff575b50505050508152602001600382015481526020016004820160009054906101000a900460ff16151515158152505094506123838987612635565b9350935083151561239357600080fd5b6005600084815260200190815260200160002060c0604051908101604052908160008201548152602001600182015481526020016002820154815260200160038201548152602001600482015481526020016005820160009054906101000a900460ff16151515158152505091508560c00151801561241357508560a001515b8015612420575084608001515b151561242b57600080fd5b6000826080015111151561243e57600080fd5b612448858961269a565b8160800180518091906001900381525050600360009054906101000a900473ffffffffffffffffffffffffffffffffffffffff1673ffffffffffffffffffffffffffffffffffffffff1663156e29f63384600001518d6040518463ffffffff167c0100000000000000000000000000000000000000000000000000000000028152600401808473ffffffffffffffffffffffffffffffffffffffff1673ffffffffffffffffffffffffffffffffffffffff1681526020018381526020018281526020019350505050602060405180830381600087803b15801561252a57600080fd5b505af115801561253e573d6000803e3d6000fd5b505050506040513d602081101561255457600080fd5b810190808051906020019092919050505090507f6af484e6053d6d5de2ae0b509afebba36f7fea2eeb3f2a6fe43f38d87ca85ca9818b8b856000015133604051808681526020018581526020018481526020018381526020018273ffffffffffffffffffffffffffffffffffffffff1673ffffffffffffffffffffffffffffffffffffffff1681526020019550505050505060405180910390a18096505050505050509392505050565b60066020528060005260406000206000915090508060000154908060030154908060040160009054906101000a900460ff16905083565b60008060008090505b836040015151811015612687578484604001518281518110151561265e57fe5b90602001906020020151141561267a5760018192509250612692565b808060010191505061263e565b600080809050925092505b509250929050565b600080600084602001515184511415156126b357600080fd5b600092505b83518310156129e7578460400151838151811015156126d357fe5b9060200190602002015173ffffffffffffffffffffffffffffffffffffffff1663d633bc31858581518110151561270657fe5b906020019060200201516040518263ffffffff167c0100000000000000000000000000000000000000000000000000000000028152600401808281526020019150506040805180830381600087803b15801561276157600080fd5b505af1158015612775573d6000803e3d6000fd5b505050506040513d604081101561278b57600080fd5b810190808051906020019092919080519060200190929190505050915091508460200151838151811015156127bc57fe5b90602001906020020151811415156127d357600080fd5b6007600083815260200190815260200160002060008660400151858151811015156127fa57fe5b9060200190602002015173ffffffffffffffffffffffffffffffffffffffff1673ffffffffffffffffffffffffffffffffffffffff16815260200190815260200160002060009054906101000a900460ff1615151561285857600080fd5b3373ffffffffffffffffffffffffffffffffffffffff1685604001518481518110151561288157fe5b9060200190602002015173ffffffffffffffffffffffffffffffffffffffff16636352211e846040518263ffffffff167c010000000000000000000000000000000000000000000000000000000002815260040180828152602001915050602060405180830381600087803b1580156128f957600080fd5b505af115801561290d573d6000803e3d6000fd5b505050506040513d602081101561292357600080fd5b810190808051906020019092919050505073ffffffffffffffffffffffffffffffffffffffff1614151561295657600080fd5b600160076000848152602001908152602001600020600087604001518681518110151561297f57fe5b9060200190602002015173ffffffffffffffffffffffffffffffffffffffff1673ffffffffffffffffffffffffffffffffffffffff16815260200190815260200160002060006101000a81548160ff02191690831515021790555082806001019350506126b8565b5050505050565b60c06040519081016040528060008152602001600081526020016000815260200160008152602001600081526020016000151581525090565b60e06040519081016040528060008152602001600073ffffffffffffffffffffffffffffffffffffffff1681526020016060815260200160608152602001600081526020016000151581526020016000151581525090565b828054828255906000526020600020908101928215612abb579160200282015b82811115612aba578251825591602001919060010190612a9f565b5b509050612ac89190612bd5565b5090565b828054828255906000526020600020908101928215612b45579160200282015b82811115612b445782518260006101000a81548173ffffffffffffffffffffffffffffffffffffffff021916908373ffffffffffffffffffffffffffffffffffffffff16021790555091602001919060010190612aec565b5b509050612b529190612bfa565b5090565b828054828255906000526020600020908101928215612b92579160200282015b82811115612b91578251825591602001919060010190612b76565b5b509050612b9f9190612bd5565b5090565b60a060405190810160405280600081526020016060815260200160608152602001600081526020016000151581525090565b612bf791905b80821115612bf3576000816000905550600101612bdb565b5090565b90565b612c3a91905b80821115612c3657600081816101000a81549073ffffffffffffffffffffffffffffffffffffffff021916905550600101612c00565b5090565b905600a165627a7a72305820f778c6c2070dcb6d4f0dfbc7cd8ca883fc05c9213075e8d82f9bda1cef5bdf9b0029",
  "source": "pragma solidity ^0.4.24;\n\nimport \"zeppelin-solidity/contracts/ownership/Ownable.sol\";\nimport \"zeppelin-solidity/contracts/token/ERC721/ERC721Receiver.sol\";\n\ncontract ITVToken {\n    function balanceOf(address _owner) public view returns (uint256);\n\n    function transfer(address _to, uint256 _value) public returns (bool);\n    function transferFrom(address _from, address _to, uint256 _value) public returns (bool);\n    function safeTransfer(address _to, uint256 _value, bytes _data) public;\n}\n\ncontract IArtefact {\n    function artefacts(uint id) public returns (uint, uint);\n\n    function ownerOf(uint256 _tokenId) public view returns (address);\n}\n\ncontract ITVKey {\n    function transferFrom(address _from, address _to, uint256 _tokenId) public;\n\n    function keys(uint id) public returns (uint, uint);\n\n    function mint(address to, uint chestId, uint lotteryId) public returns (uint);\n\n    function burn(uint id) public;\n}\n\ncontract TVLottery is Ownable, ERC721Receiver {\n    address public manager;\n    address public TVTokenAddress;\n    address public TVKeyAddress;\n\n    struct Collection {\n        uint id;\n        uint[] typeIds;\n        address[] tokens;\n        uint chestTypeId;\n        bool created;\n    }\n\n    struct Lottery {\n        uint id;\n        address bank;\n        uint[] collections;\n        uint[] chests;\n        uint bankPercentage;\n        bool isActive;\n        bool created;\n    }\n\n    struct Chest {\n        uint id;\n        uint lotteryId;\n        uint percentage;\n        uint count;\n        uint keysCount;\n        bool created;\n    }\n\n    mapping(uint => Lottery) public lotteries;\n    mapping(uint => Chest) public chests;\n    mapping(uint => Collection) public collections;\n    mapping(uint => mapping(address => bool)) public usedElements;\n\n    event KeyReceived(uint keyId, uint lotteryId, uint collectionId, uint chestId, address receiver);\n    event ChestOpened(uint keyId, uint lotteryId, uint chestId, uint reward, address receiver);\n\n    modifier onlyOwnerOrManager() {\n        require(msg.sender == owner || manager == msg.sender);\n        _;\n    }\n\n    constructor(\n        address _TVTokenAddress,\n        address _TVKeyAddress,\n        address _manager\n    ) public {\n        manager = _manager;\n        TVTokenAddress = _TVTokenAddress;\n        TVKeyAddress = _TVKeyAddress;\n    }\n\n    function onERC721Received(\n        address _from,\n        uint256 _tokenId,\n        bytes\n    ) public returns (bytes4) {\n        (, uint chestId) = ITVKey(TVKeyAddress).keys(_tokenId);\n        Chest memory chest = chests[chestId];\n        Lottery memory lottery = lotteries[chest.lotteryId];\n\n        ITVKey(TVKeyAddress).transferFrom(this, lottery.bank, _tokenId);\n        lottery.bankPercentage -= chest.percentage;\n        uint reward = getChestReward(chestId);\n        ITVToken(TVTokenAddress).transferFrom(lottery.bank, _from, reward);\n        emit ChestOpened(_tokenId, lottery.id, chest.id, reward, _from);\n        return ERC721_RECEIVED;\n    }\n\n    function getChestReward(uint chestId) public view returns (uint) {\n        Chest memory chest = chests[chestId];\n        Lottery memory lottery = lotteries[chest.lotteryId];\n        uint bankBalance = ITVToken(TVTokenAddress).balanceOf(lottery.bank);\n        uint onePercentage = bankBalance / lottery.bankPercentage * 100;\n        return chest.percentage * onePercentage;\n    }\n\n    function getKey(uint lotteryId, uint collectionId, uint[] elementIds) public returns (uint) {\n        Lottery memory lottery = lotteries[lotteryId];\n        Collection memory collection = collections[collectionId];\n        (bool found, uint collectionIndex) = findCollectionIndex(collectionId, lottery);\n        require(found);\n        Chest memory chest = chests[collectionIndex];\n\n        require(lottery.created && lottery.isActive && collection.created);\n        require(chest.keysCount > 0);\n\n        checkCollection(collection, elementIds);\n\n        chest.keysCount--;\n        uint keyId = ITVKey(TVKeyAddress).mint(msg.sender, chest.id, lotteryId);\n        emit KeyReceived(keyId, lotteryId, collectionId, chest.id, msg.sender);\n\n        return keyId;\n    }\n\n    function findCollectionIndex(uint collectionId, Lottery lottery) internal pure returns (bool, uint) {\n        for (uint i = 0; i < lottery.collections.length; i++) {\n            if (lottery.collections[i] == collectionId) {\n                return (true, i);\n            }\n        }\n        return (false, 0);\n    }\n\n    function checkCollection(Collection collection, uint[] elementsIds) internal {\n        require(elementsIds.length == collection.typeIds.length);\n        for (uint i = 0; i < elementsIds.length; i++) {\n            (uint id, uint typeId) = IArtefact(collection.tokens[i]).artefacts(elementsIds[i]);\n            require(typeId == collection.typeIds[i]);\n            require(!usedElements[id][collection.tokens[i]]);\n            require(IArtefact(collection.tokens[i]).ownerOf(id) == msg.sender);\n            usedElements[id][collection.tokens[i]] = true;\n        }\n    }\n\n    function setCollection(\n        uint id,\n        uint[] typeIds,\n        address[] tokens,\n        uint chestTypeId,\n        bool created\n    ) public onlyOwnerOrManager {\n        require(typeIds.length == tokens.length);\n        collections[id] = Collection(id, typeIds, tokens, chestTypeId, created);\n    }\n\n    function setChest(\n        uint lotteryId,\n        uint id,\n        uint percentage,\n        uint count,\n        uint keysCount,\n        bool created\n    ) public onlyOwnerOrManager {\n        chests[id] = Chest(id, lotteryId, percentage, count, keysCount, created);\n    }\n\n    function setLottery(\n        uint id,\n        address bank,\n        uint[] _collections,\n        uint[] _chests,\n        uint bankPercentage,\n        bool isActive,\n        bool created\n    ) public onlyOwnerOrManager {\n        lotteries[id] = Lottery(id, bank, _collections, _chests, bankPercentage, isActive, created);\n    }\n\n    function changeLotteryBank(uint lotteryId, address bank, uint bankPercentage) public onlyOwnerOrManager {\n        lotteries[lotteryId].bank = bank;\n        lotteries[lotteryId].bankPercentage = bankPercentage;\n    }\n\n    function updateCollections(uint lotteryId, uint[] _collections, uint[] _chests) public onlyOwnerOrManager {\n        require(_chests.length == _collections.length);\n        lotteries[lotteryId].collections = _collections;\n        lotteries[lotteryId].chests = _chests;\n    }\n\n    function setLotteryActive(uint id, bool isActive) public onlyOwnerOrManager {\n        lotteries[id].isActive = isActive;\n    }\n\n    function changeTVTokenAddress(address newAddress) public onlyOwnerOrManager {\n        TVTokenAddress = newAddress;\n    }\n\n    function changeTVKeyAddress(address newAddress) public onlyOwnerOrManager {\n        TVKeyAddress = newAddress;\n    }\n\n    function setManager(address _manager) public onlyOwner {\n        manager = _manager;\n    }\n}\n",
  "sourcePath": "/Users/user/Projects/tvtoken/contracts/TVLottery.sol",
  "compiler": {
    "name": "solc",
    "version": "0.4.24+commit.e67f0147.Emscripten.clang"
  },
  "schemaVersion": "2.0.0",
  "updatedAt": "2019-01-16T10:22:04.721Z"
}