{
  "contractName": "TVPremium",
  "abi": [
    {
      "constant": true,
      "inputs": [],
      "name": "name",
      "outputs": [
        {
          "name": "",
          "type": "string"
        }
      ],
      "payable": false,
      "stateMutability": "view",
      "type": "function"
    },
    {
      "constant": true,
      "inputs": [
        {
          "name": "_tokenId",
          "type": "uint256"
        }
      ],
      "name": "getApproved",
      "outputs": [
        {
          "name": "",
          "type": "address"
        }
      ],
      "payable": false,
      "stateMutability": "view",
      "type": "function"
    },
    {
      "constant": false,
      "inputs": [
        {
          "name": "_to",
          "type": "address"
        },
        {
          "name": "_tokenId",
          "type": "uint256"
        }
      ],
      "name": "approve",
      "outputs": [],
      "payable": false,
      "stateMutability": "nonpayable",
      "type": "function"
    },
    {
      "constant": true,
      "inputs": [],
      "name": "totalSupply",
      "outputs": [
        {
          "name": "",
          "type": "uint256"
        }
      ],
      "payable": false,
      "stateMutability": "view",
      "type": "function"
    },
    {
      "constant": false,
      "inputs": [
        {
          "name": "_from",
          "type": "address"
        },
        {
          "name": "_to",
          "type": "address"
        },
        {
          "name": "_tokenId",
          "type": "uint256"
        }
      ],
      "name": "transferFrom",
      "outputs": [],
      "payable": false,
      "stateMutability": "nonpayable",
      "type": "function"
    },
    {
      "constant": true,
      "inputs": [
        {
          "name": "_owner",
          "type": "address"
        },
        {
          "name": "_index",
          "type": "uint256"
        }
      ],
      "name": "tokenOfOwnerByIndex",
      "outputs": [
        {
          "name": "",
          "type": "uint256"
        }
      ],
      "payable": false,
      "stateMutability": "view",
      "type": "function"
    },
    {
      "constant": true,
      "inputs": [],
      "name": "TVTokenAddress",
      "outputs": [
        {
          "name": "",
          "type": "address"
        }
      ],
      "payable": false,
      "stateMutability": "view",
      "type": "function"
    },
    {
      "constant": false,
      "inputs": [
        {
          "name": "_from",
          "type": "address"
        },
        {
          "name": "_to",
          "type": "address"
        },
        {
          "name": "_tokenId",
          "type": "uint256"
        }
      ],
      "name": "safeTransferFrom",
      "outputs": [],
      "payable": false,
      "stateMutability": "nonpayable",
      "type": "function"
    },
    {
      "constant": true,
      "inputs": [],
      "name": "manager",
      "outputs": [
        {
          "name": "",
          "type": "address"
        }
      ],
      "payable": false,
      "stateMutability": "view",
      "type": "function"
    },
    {
      "constant": true,
      "inputs": [
        {
          "name": "_tokenId",
          "type": "uint256"
        }
      ],
      "name": "exists",
      "outputs": [
        {
          "name": "",
          "type": "bool"
        }
      ],
      "payable": false,
      "stateMutability": "view",
      "type": "function"
    },
    {
      "constant": true,
      "inputs": [
        {
          "name": "_index",
          "type": "uint256"
        }
      ],
      "name": "tokenByIndex",
      "outputs": [
        {
          "name": "",
          "type": "uint256"
        }
      ],
      "payable": false,
      "stateMutability": "view",
      "type": "function"
    },
    {
      "constant": true,
      "inputs": [],
      "name": "wallet",
      "outputs": [
        {
          "name": "",
          "type": "address"
        }
      ],
      "payable": false,
      "stateMutability": "view",
      "type": "function"
    },
    {
      "constant": true,
      "inputs": [],
      "name": "TVCouponAddress",
      "outputs": [
        {
          "name": "",
          "type": "address"
        }
      ],
      "payable": false,
      "stateMutability": "view",
      "type": "function"
    },
    {
      "constant": true,
      "inputs": [
        {
          "name": "_tokenId",
          "type": "uint256"
        }
      ],
      "name": "ownerOf",
      "outputs": [
        {
          "name": "",
          "type": "address"
        }
      ],
      "payable": false,
      "stateMutability": "view",
      "type": "function"
    },
    {
      "constant": true,
      "inputs": [
        {
          "name": "_owner",
          "type": "address"
        }
      ],
      "name": "balanceOf",
      "outputs": [
        {
          "name": "",
          "type": "uint256"
        }
      ],
      "payable": false,
      "stateMutability": "view",
      "type": "function"
    },
    {
      "constant": true,
      "inputs": [],
      "name": "owner",
      "outputs": [
        {
          "name": "",
          "type": "address"
        }
      ],
      "payable": false,
      "stateMutability": "view",
      "type": "function"
    },
    {
      "constant": true,
      "inputs": [],
      "name": "symbol",
      "outputs": [
        {
          "name": "",
          "type": "string"
        }
      ],
      "payable": false,
      "stateMutability": "view",
      "type": "function"
    },
    {
      "constant": true,
      "inputs": [],
      "name": "price",
      "outputs": [
        {
          "name": "",
          "type": "uint256"
        }
      ],
      "payable": false,
      "stateMutability": "view",
      "type": "function"
    },
    {
      "constant": false,
      "inputs": [
        {
          "name": "_to",
          "type": "address"
        },
        {
          "name": "_approved",
          "type": "bool"
        }
      ],
      "name": "setApprovalForAll",
      "outputs": [],
      "payable": false,
      "stateMutability": "nonpayable",
      "type": "function"
    },
    {
      "constant": true,
      "inputs": [],
      "name": "discountPercentage",
      "outputs": [
        {
          "name": "",
          "type": "uint256"
        }
      ],
      "payable": false,
      "stateMutability": "view",
      "type": "function"
    },
    {
      "constant": false,
      "inputs": [
        {
          "name": "_from",
          "type": "address"
        },
        {
          "name": "_to",
          "type": "address"
        },
        {
          "name": "_tokenId",
          "type": "uint256"
        },
        {
          "name": "_data",
          "type": "bytes"
        }
      ],
      "name": "safeTransferFrom",
      "outputs": [],
      "payable": false,
      "stateMutability": "nonpayable",
      "type": "function"
    },
    {
      "constant": true,
      "inputs": [
        {
          "name": "_tokenId",
          "type": "uint256"
        }
      ],
      "name": "tokenURI",
      "outputs": [
        {
          "name": "",
          "type": "string"
        }
      ],
      "payable": false,
      "stateMutability": "view",
      "type": "function"
    },
    {
      "constant": true,
      "inputs": [
        {
          "name": "_owner",
          "type": "address"
        },
        {
          "name": "_operator",
          "type": "address"
        }
      ],
      "name": "isApprovedForAll",
      "outputs": [
        {
          "name": "",
          "type": "bool"
        }
      ],
      "payable": false,
      "stateMutability": "view",
      "type": "function"
    },
    {
      "constant": true,
      "inputs": [],
      "name": "TVCrowdsaleAddress",
      "outputs": [
        {
          "name": "",
          "type": "address"
        }
      ],
      "payable": false,
      "stateMutability": "view",
      "type": "function"
    },
    {
      "constant": false,
      "inputs": [
        {
          "name": "newOwner",
          "type": "address"
        }
      ],
      "name": "transferOwnership",
      "outputs": [],
      "payable": false,
      "stateMutability": "nonpayable",
      "type": "function"
    },
    {
      "inputs": [
        {
          "name": "_TVTokenAddress",
          "type": "address"
        },
        {
          "name": "_TVCrowdsaleAddress",
          "type": "address"
        },
        {
          "name": "_TVCouponAddress",
          "type": "address"
        },
        {
          "name": "_manager",
          "type": "address"
        },
        {
          "name": "_discountPercentage",
          "type": "uint256"
        },
        {
          "name": "_wallet",
          "type": "address"
        }
      ],
      "payable": false,
      "stateMutability": "nonpayable",
      "type": "constructor"
    },
    {
      "anonymous": false,
      "inputs": [
        {
          "indexed": false,
          "name": "from",
          "type": "address"
        },
        {
          "indexed": false,
          "name": "value",
          "type": "uint256"
        },
        {
          "indexed": false,
          "name": "data",
          "type": "bytes"
        },
        {
          "indexed": false,
          "name": "couponId",
          "type": "uint256"
        }
      ],
      "name": "TokenReceived",
      "type": "event"
    },
    {
      "anonymous": false,
      "inputs": [
        {
          "indexed": false,
          "name": "buyer",
          "type": "address"
        },
        {
          "indexed": false,
          "name": "rate",
          "type": "uint256"
        },
        {
          "indexed": false,
          "name": "price",
          "type": "uint256"
        },
        {
          "indexed": false,
          "name": "couponId",
          "type": "uint256"
        }
      ],
      "name": "ChangeAndBuyPremium",
      "type": "event"
    },
    {
      "anonymous": false,
      "inputs": [
        {
          "indexed": true,
          "name": "_from",
          "type": "address"
        },
        {
          "indexed": true,
          "name": "_to",
          "type": "address"
        },
        {
          "indexed": false,
          "name": "_tokenId",
          "type": "uint256"
        }
      ],
      "name": "Transfer",
      "type": "event"
    },
    {
      "anonymous": false,
      "inputs": [
        {
          "indexed": true,
          "name": "_owner",
          "type": "address"
        },
        {
          "indexed": true,
          "name": "_approved",
          "type": "address"
        },
        {
          "indexed": false,
          "name": "_tokenId",
          "type": "uint256"
        }
      ],
      "name": "Approval",
      "type": "event"
    },
    {
      "anonymous": false,
      "inputs": [
        {
          "indexed": true,
          "name": "_owner",
          "type": "address"
        },
        {
          "indexed": true,
          "name": "_operator",
          "type": "address"
        },
        {
          "indexed": false,
          "name": "_approved",
          "type": "bool"
        }
      ],
      "name": "ApprovalForAll",
      "type": "event"
    },
    {
      "anonymous": false,
      "inputs": [
        {
          "indexed": true,
          "name": "previousOwner",
          "type": "address"
        },
        {
          "indexed": true,
          "name": "newOwner",
          "type": "address"
        }
      ],
      "name": "OwnershipTransferred",
      "type": "event"
    },
    {
      "constant": false,
      "inputs": [
        {
          "name": "to",
          "type": "address"
        }
      ],
      "name": "mint",
      "outputs": [],
      "payable": false,
      "stateMutability": "nonpayable",
      "type": "function"
    },
    {
      "constant": false,
      "inputs": [
        {
          "name": "_from",
          "type": "address"
        },
        {
          "name": "_value",
          "type": "uint256"
        },
        {
          "name": "_data",
          "type": "bytes"
        }
      ],
      "name": "onTokenReceived",
      "outputs": [
        {
          "name": "",
          "type": "bytes4"
        }
      ],
      "payable": false,
      "stateMutability": "nonpayable",
      "type": "function"
    },
    {
      "constant": false,
      "inputs": [
        {
          "name": "couponId",
          "type": "uint256"
        }
      ],
      "name": "changeAndBuyPremium",
      "outputs": [],
      "payable": true,
      "stateMutability": "payable",
      "type": "function"
    },
    {
      "constant": true,
      "inputs": [],
      "name": "getDiscountPrice",
      "outputs": [
        {
          "name": "",
          "type": "uint256"
        }
      ],
      "payable": false,
      "stateMutability": "view",
      "type": "function"
    },
    {
      "constant": false,
      "inputs": [
        {
          "name": "_price",
          "type": "uint256"
        }
      ],
      "name": "changePrice",
      "outputs": [],
      "payable": false,
      "stateMutability": "nonpayable",
      "type": "function"
    },
    {
      "constant": false,
      "inputs": [
        {
          "name": "_address",
          "type": "address"
        }
      ],
      "name": "changeTVCouponAddress",
      "outputs": [],
      "payable": false,
      "stateMutability": "nonpayable",
      "type": "function"
    },
    {
      "constant": false,
      "inputs": [
        {
          "name": "percentage",
          "type": "uint256"
        }
      ],
      "name": "changeDiscountPercentage",
      "outputs": [],
      "payable": false,
      "stateMutability": "nonpayable",
      "type": "function"
    },
    {
      "constant": false,
      "inputs": [
        {
          "name": "_wallet",
          "type": "address"
        }
      ],
      "name": "changeWallet",
      "outputs": [],
      "payable": false,
      "stateMutability": "nonpayable",
      "type": "function"
    },
    {
      "constant": false,
      "inputs": [
        {
          "name": "newAddress",
          "type": "address"
        }
      ],
      "name": "changeTVTokenAddress",
      "outputs": [],
      "payable": false,
      "stateMutability": "nonpayable",
      "type": "function"
    },
    {
      "constant": false,
      "inputs": [
        {
          "name": "newAddress",
          "type": "address"
        }
      ],
      "name": "changeTVCrowdsaleAddress",
      "outputs": [],
      "payable": false,
      "stateMutability": "nonpayable",
      "type": "function"
    },
    {
      "constant": false,
      "inputs": [
        {
          "name": "_manager",
          "type": "address"
        }
      ],
      "name": "setManager",
      "outputs": [],
      "payable": false,
      "stateMutability": "nonpayable",
      "type": "function"
    }
  ],
  "bytecode": "0x608060405260006013553480156200001657600080fd5b5060405160c0806200383d8339810180604052810190808051906020019092919080519060200190929190805190602001909291908051906020019092919080519060200190929190805190602001909291905050506040805190810160405280600f81526020017f54565072656d69756d20546f6b656e00000000000000000000000000000000008152506040805190810160405280600381526020017f5456500000000000000000000000000000000000000000000000000000000000815250336000806101000a81548173ffffffffffffffffffffffffffffffffffffffff021916908373ffffffffffffffffffffffffffffffffffffffff160217905550816005908051906020019062000130929190620002a4565b50806006908051906020019062000149929190620002a4565b50505083600f60006101000a81548173ffffffffffffffffffffffffffffffffffffffff021916908373ffffffffffffffffffffffffffffffffffffffff16021790555082600e60006101000a81548173ffffffffffffffffffffffffffffffffffffffff021916908373ffffffffffffffffffffffffffffffffffffffff16021790555081600c8190555084601260006101000a81548173ffffffffffffffffffffffffffffffffffffffff021916908373ffffffffffffffffffffffffffffffffffffffff16021790555085601160006101000a81548173ffffffffffffffffffffffffffffffffffffffff021916908373ffffffffffffffffffffffffffffffffffffffff16021790555080601060006101000a81548173ffffffffffffffffffffffffffffffffffffffff021916908373ffffffffffffffffffffffffffffffffffffffff16021790555050505050505062000353565b828054600181600116156101000203166002900490600052602060002090601f016020900481019282601f10620002e757805160ff191683800117855562000318565b8280016001018555821562000318579182015b8281111562000317578251825591602001919060010190620002fa565b5b5090506200032791906200032b565b5090565b6200035091905b808211156200034c57600081600090555060010162000332565b5090565b90565b6134da80620003636000396000f3006080604052600436106101c2576000357c0100000000000000000000000000000000000000000000000000000000900463ffffffff16806306fdde03146101c7578063081812fc1461025757806308630689146102c4578063095ea7b3146102e457806318160ddd1461033157806323b872dd1461035c5780632f745c59146103c9578063411086591461042a57806342842e0e14610481578063481c6a75146104ee5780634f558e79146105455780634f6ccce71461058a578063521eb273146105cb57806352ef8785146106225780636352211e146106795780636a627842146106e657806370a0823114610729578063854e3214146107805780638da5cb5b146107ab57806395d89b411461080257806398b9a2dc14610892578063a035b1fe146108d5578063a22cb46514610900578063a2b40d191461094f578063aa3ac93f1461097c578063b3fa9f24146109a9578063b88d4fde146109d4578063bed2554214610a87578063c87b56dd14610b6c578063d0ebdbe714610c12578063db7576fc14610c55578063dc68c52c14610c98578063e985e9c514610cdb578063f0bb252d14610d56578063f2fde38b14610dad578063f81fa51a14610df0575b600080fd5b3480156101d357600080fd5b506101dc610e33565b6040518080602001828103825283818151815260200191508051906020019080838360005b8381101561021c578082015181840152602081019050610201565b50505050905090810190601f1680156102495780820380516001836020036101000a031916815260200191505b509250505060405180910390f35b34801561026357600080fd5b5061028260048036038101908080359060200190929190505050610ed5565b604051808273ffffffffffffffffffffffffffffffffffffffff1673ffffffffffffffffffffffffffffffffffffffff16815260200191505060405180910390f35b6102e260048036038101908080359060200190929190505050610f12565b005b3480156102f057600080fd5b5061032f600480360381019080803573ffffffffffffffffffffffffffffffffffffffff16906020019092919080359060200190929190505050611312565b005b34801561033d57600080fd5b506103466114d8565b6040518082815260200191505060405180910390f35b34801561036857600080fd5b506103c7600480360381019080803573ffffffffffffffffffffffffffffffffffffffff169060200190929190803573ffffffffffffffffffffffffffffffffffffffff169060200190929190803590602001909291905050506114e5565b005b3480156103d557600080fd5b50610414600480360381019080803573ffffffffffffffffffffffffffffffffffffffff169060200190929190803590602001909291905050506115fc565b6040518082815260200191505060405180910390f35b34801561043657600080fd5b5061043f611673565b604051808273ffffffffffffffffffffffffffffffffffffffff1673ffffffffffffffffffffffffffffffffffffffff16815260200191505060405180910390f35b34801561048d57600080fd5b506104ec600480360381019080803573ffffffffffffffffffffffffffffffffffffffff169060200190929190803573ffffffffffffffffffffffffffffffffffffffff16906020019092919080359060200190929190505050611699565b005b3480156104fa57600080fd5b506105036116d1565b604051808273ffffffffffffffffffffffffffffffffffffffff1673ffffffffffffffffffffffffffffffffffffffff16815260200191505060405180910390f35b34801561055157600080fd5b50610570600480360381019080803590602001909291905050506116f7565b604051808215151515815260200191505060405180910390f35b34801561059657600080fd5b506105b560048036038101908080359060200190929190505050611769565b6040518082815260200191505060405180910390f35b3480156105d757600080fd5b506105e06117a1565b604051808273ffffffffffffffffffffffffffffffffffffffff1673ffffffffffffffffffffffffffffffffffffffff16815260200191505060405180910390f35b34801561062e57600080fd5b506106376117c7565b604051808273ffffffffffffffffffffffffffffffffffffffff1673ffffffffffffffffffffffffffffffffffffffff16815260200191505060405180910390f35b34801561068557600080fd5b506106a4600480360381019080803590602001909291905050506117ed565b604051808273ffffffffffffffffffffffffffffffffffffffff1673ffffffffffffffffffffffffffffffffffffffff16815260200191505060405180910390f35b3480156106f257600080fd5b50610727600480360381019080803573ffffffffffffffffffffffffffffffffffffffff16906020019092919050505061186b565b005b34801561073557600080fd5b5061076a600480360381019080803573ffffffffffffffffffffffffffffffffffffffff16906020019092919050505061193f565b6040518082815260200191505060405180910390f35b34801561078c57600080fd5b506107956119c3565b6040518082815260200191505060405180910390f35b3480156107b757600080fd5b506107c06119e1565b604051808273ffffffffffffffffffffffffffffffffffffffff1673ffffffffffffffffffffffffffffffffffffffff16815260200191505060405180910390f35b34801561080e57600080fd5b50610817611a06565b6040518080602001828103825283818151815260200191508051906020019080838360005b8381101561085757808201518184015260208101905061083c565b50505050905090810190601f1680156108845780820380516001836020036101000a031916815260200191505b509250505060405180910390f35b34801561089e57600080fd5b506108d3600480360381019080803573ffffffffffffffffffffffffffffffffffffffff169060200190929190505050611aa8565b005b3480156108e157600080fd5b506108ea611b9f565b6040518082815260200191505060405180910390f35b34801561090c57600080fd5b5061094d600480360381019080803573ffffffffffffffffffffffffffffffffffffffff169060200190929190803515159060200190929190505050611ba5565b005b34801561095b57600080fd5b5061097a60048036038101908080359060200190929190505050611ce1565b005b34801561098857600080fd5b506109a760048036038101908080359060200190929190505050611d9e565b005b3480156109b557600080fd5b506109be611e6d565b6040518082815260200191505060405180910390f35b3480156109e057600080fd5b50610a85600480360381019080803573ffffffffffffffffffffffffffffffffffffffff169060200190929190803573ffffffffffffffffffffffffffffffffffffffff16906020019092919080359060200190929190803590602001908201803590602001908080601f0160208091040260200160405190810160405280939291908181526020018383808284378201915050505050509192919290505050611e73565b005b348015610a9357600080fd5b50610b18600480360381019080803573ffffffffffffffffffffffffffffffffffffffff16906020019092919080359060200190929190803590602001908201803590602001908080601f0160208091040260200160405190810160405280939291908181526020018383808284378201915050505050509192919290505050611eb2565b60405180827bffffffffffffffffffffffffffffffffffffffffffffffffffffffff19167bffffffffffffffffffffffffffffffffffffffffffffffffffffffff1916815260200191505060405180910390f35b348015610b7857600080fd5b50610b97600480360381019080803590602001909291905050506122e6565b6040518080602001828103825283818151815260200191508051906020019080838360005b83811015610bd7578082015181840152602081019050610bbc565b50505050905090810190601f168015610c045780820380516001836020036101000a031916815260200191505b509250505060405180910390f35b348015610c1e57600080fd5b50610c53600480360381019080803573ffffffffffffffffffffffffffffffffffffffff1690602001909291905050506123af565b005b348015610c6157600080fd5b50610c96600480360381019080803573ffffffffffffffffffffffffffffffffffffffff16906020019092919050505061244e565b005b348015610ca457600080fd5b50610cd9600480360381019080803573ffffffffffffffffffffffffffffffffffffffff169060200190929190505050612545565b005b348015610ce757600080fd5b50610d3c600480360381019080803573ffffffffffffffffffffffffffffffffffffffff169060200190929190803573ffffffffffffffffffffffffffffffffffffffff16906020019092919050505061263c565b604051808215151515815260200191505060405180910390f35b348015610d6257600080fd5b50610d6b6126d0565b604051808273ffffffffffffffffffffffffffffffffffffffff1673ffffffffffffffffffffffffffffffffffffffff16815260200191505060405180910390f35b348015610db957600080fd5b50610dee600480360381019080803573ffffffffffffffffffffffffffffffffffffffff1690602001909291905050506126f6565b005b348015610dfc57600080fd5b50610e31600480360381019080803573ffffffffffffffffffffffffffffffffffffffff16906020019092919050505061284b565b005b606060058054600181600116156101000203166002900480601f016020809104026020016040519081016040528092919081815260200182805460018160011615610100020316600290048015610ecb5780601f10610ea057610100808354040283529160200191610ecb565b820191906000526020600020905b815481529060010190602001808311610eae57829003601f168201915b5050505050905090565b60006002600083815260200190815260200160002060009054906101000a900473ffffffffffffffffffffffffffffffffffffffff169050919050565b60008060006060601260009054906101000a900473ffffffffffffffffffffffffffffffffffffffff1673ffffffffffffffffffffffffffffffffffffffff1663f9f8bdb76040518163ffffffff167c0100000000000000000000000000000000000000000000000000000000028152600401602060405180830381600087803b158015610f9f57600080fd5b505af1158015610fb3573d6000803e3d6000fd5b505050506040513d6020811015610fc957600080fd5b8101908080519060200190929190505050935060008514611000576064600c54600d5402811515610ff657fe5b04600d5403611004565b600d545b925083600d5481151561101357fe5b049150348214151561102457600080fd5b601260009054906101000a900473ffffffffffffffffffffffffffffffffffffffff1673ffffffffffffffffffffffffffffffffffffffff1663ec8ac4d834306040518363ffffffff167c0100000000000000000000000000000000000000000000000000000000028152600401808273ffffffffffffffffffffffffffffffffffffffff1673ffffffffffffffffffffffffffffffffffffffff1681526020019150506000604051808303818588803b1580156110e157600080fd5b505af11580156110f5573d6000803e3d6000fd5b505050505061110385612942565b905033601460006101000a81548173ffffffffffffffffffffffffffffffffffffffff021916908373ffffffffffffffffffffffffffffffffffffffff160217905550601160009054906101000a900473ffffffffffffffffffffffffffffffffffffffff1673ffffffffffffffffffffffffffffffffffffffff1663eb7955493085846040518463ffffffff167c0100000000000000000000000000000000000000000000000000000000028152600401808473ffffffffffffffffffffffffffffffffffffffff1673ffffffffffffffffffffffffffffffffffffffff16815260200183815260200180602001828103825283818151815260200191508051906020019080838360005b8381101561122a57808201518184015260208101905061120f565b50505050905090810190601f1680156112575780820380516001836020036101000a031916815260200191505b50945050505050600060405180830381600087803b15801561127857600080fd5b505af115801561128c573d6000803e3d6000fd5b505050507f325c21760c0be5fa91cb2834a48c582ffc9876989d9d762cb9115bcc7fa71d7533858488604051808573ffffffffffffffffffffffffffffffffffffffff1673ffffffffffffffffffffffffffffffffffffffff16815260200184815260200183815260200182815260200194505050505060405180910390a15050505050565b600061131d826117ed565b90508073ffffffffffffffffffffffffffffffffffffffff168373ffffffffffffffffffffffffffffffffffffffff161415151561135a57600080fd5b8073ffffffffffffffffffffffffffffffffffffffff163373ffffffffffffffffffffffffffffffffffffffff16148061139a5750611399813361263c565b5b15156113a557600080fd5b600073ffffffffffffffffffffffffffffffffffffffff166113c683610ed5565b73ffffffffffffffffffffffffffffffffffffffff161415806114165750600073ffffffffffffffffffffffffffffffffffffffff168373ffffffffffffffffffffffffffffffffffffffff1614155b156114d357826002600084815260200190815260200160002060006101000a81548173ffffffffffffffffffffffffffffffffffffffff021916908373ffffffffffffffffffffffffffffffffffffffff1602179055508273ffffffffffffffffffffffffffffffffffffffff168173ffffffffffffffffffffffffffffffffffffffff167f8c5be1e5ebec7d5bd14f71427d1e84f3dd0314c0f7b2291e5b200ac8c7c3b925846040518082815260200191505060405180910390a35b505050565b6000600980549050905090565b806114f03382612986565b15156114fb57600080fd5b600073ffffffffffffffffffffffffffffffffffffffff168473ffffffffffffffffffffffffffffffffffffffff161415151561153757600080fd5b600073ffffffffffffffffffffffffffffffffffffffff168373ffffffffffffffffffffffffffffffffffffffff161415151561157357600080fd5b61157d8483612a1b565b6115878483612b84565b6115918383612d9c565b8273ffffffffffffffffffffffffffffffffffffffff168473ffffffffffffffffffffffffffffffffffffffff167fddf252ad1be2c89b69c2b068fc378daa952ba7f163c4a11628f55a4df523b3ef846040518082815260200191505060405180910390a350505050565b60006116078361193f565b8210151561161457600080fd5b600760008473ffffffffffffffffffffffffffffffffffffffff1673ffffffffffffffffffffffffffffffffffffffff1681526020019081526020016000208281548110151561166057fe5b9060005260206000200154905092915050565b601160009054906101000a900473ffffffffffffffffffffffffffffffffffffffff1681565b806116a43382612986565b15156116af57600080fd5b6116cb8484846020604051908101604052806000815250611e73565b50505050565b600e60009054906101000a900473ffffffffffffffffffffffffffffffffffffffff1681565b6000806001600084815260200190815260200160002060009054906101000a900473ffffffffffffffffffffffffffffffffffffffff169050600073ffffffffffffffffffffffffffffffffffffffff168173ffffffffffffffffffffffffffffffffffffffff161415915050919050565b60006117736114d8565b8210151561178057600080fd5b60098281548110151561178f57fe5b90600052602060002001549050919050565b601060009054906101000a900473ffffffffffffffffffffffffffffffffffffffff1681565b600f60009054906101000a900473ffffffffffffffffffffffffffffffffffffffff1681565b6000806001600084815260200190815260200160002060009054906101000a900473ffffffffffffffffffffffffffffffffffffffff169050600073ffffffffffffffffffffffffffffffffffffffff168173ffffffffffffffffffffffffffffffffffffffff161415151561186257600080fd5b80915050919050565b6000809054906101000a900473ffffffffffffffffffffffffffffffffffffffff1673ffffffffffffffffffffffffffffffffffffffff163373ffffffffffffffffffffffffffffffffffffffff16148061191357503373ffffffffffffffffffffffffffffffffffffffff16600e60009054906101000a900473ffffffffffffffffffffffffffffffffffffffff1673ffffffffffffffffffffffffffffffffffffffff16145b151561191e57600080fd5b60136000815480929190600101919050555061193c81601354612e73565b50565b60008073ffffffffffffffffffffffffffffffffffffffff168273ffffffffffffffffffffffffffffffffffffffff161415151561197c57600080fd5b600360008373ffffffffffffffffffffffffffffffffffffffff1673ffffffffffffffffffffffffffffffffffffffff168152602001908152602001600020549050919050565b60006064600c54600d54028115156119d757fe5b04600d5403905090565b6000809054906101000a900473ffffffffffffffffffffffffffffffffffffffff1681565b606060068054600181600116156101000203166002900480601f016020809104026020016040519081016040528092919081815260200182805460018160011615610100020316600290048015611a9e5780601f10611a7357610100808354040283529160200191611a9e565b820191906000526020600020905b815481529060010190602001808311611a8157829003601f168201915b5050505050905090565b6000809054906101000a900473ffffffffffffffffffffffffffffffffffffffff1673ffffffffffffffffffffffffffffffffffffffff163373ffffffffffffffffffffffffffffffffffffffff161480611b5057503373ffffffffffffffffffffffffffffffffffffffff16600e60009054906101000a900473ffffffffffffffffffffffffffffffffffffffff1673ffffffffffffffffffffffffffffffffffffffff16145b1515611b5b57600080fd5b80601060006101000a81548173ffffffffffffffffffffffffffffffffffffffff021916908373ffffffffffffffffffffffffffffffffffffffff16021790555050565b600d5481565b3373ffffffffffffffffffffffffffffffffffffffff168273ffffffffffffffffffffffffffffffffffffffff1614151515611be057600080fd5b80600460003373ffffffffffffffffffffffffffffffffffffffff1673ffffffffffffffffffffffffffffffffffffffff16815260200190815260200160002060008473ffffffffffffffffffffffffffffffffffffffff1673ffffffffffffffffffffffffffffffffffffffff16815260200190815260200160002060006101000a81548160ff0219169083151502179055508173ffffffffffffffffffffffffffffffffffffffff163373ffffffffffffffffffffffffffffffffffffffff167f17307eab39ab6107e8899845ad3d59bd9653f200f220920489ca2b5937696c3183604051808215151515815260200191505060405180910390a35050565b6000809054906101000a900473ffffffffffffffffffffffffffffffffffffffff1673ffffffffffffffffffffffffffffffffffffffff163373ffffffffffffffffffffffffffffffffffffffff161480611d8957503373ffffffffffffffffffffffffffffffffffffffff16600e60009054906101000a900473ffffffffffffffffffffffffffffffffffffffff1673ffffffffffffffffffffffffffffffffffffffff16145b1515611d9457600080fd5b80600d8190555050565b6000809054906101000a900473ffffffffffffffffffffffffffffffffffffffff1673ffffffffffffffffffffffffffffffffffffffff163373ffffffffffffffffffffffffffffffffffffffff161480611e4657503373ffffffffffffffffffffffffffffffffffffffff16600e60009054906101000a900473ffffffffffffffffffffffffffffffffffffffff1673ffffffffffffffffffffffffffffffffffffffff16145b1515611e5157600080fd5b6064600c5411151515611e6357600080fd5b80600c8190555050565b600c5481565b81611e7e3382612986565b1515611e8957600080fd5b611e948585856114e5565b611ea085858585612eca565b1515611eab57600080fd5b5050505050565b6000806000601160009054906101000a900473ffffffffffffffffffffffffffffffffffffffff1673ffffffffffffffffffffffffffffffffffffffff163373ffffffffffffffffffffffffffffffffffffffff16141515611f1357600080fd5b611f1c846130b8565b60019004915060008214611f46576064600c54600d5402811515611f3c57fe5b04600d5403611f4a565b600d545b90508481141515611f5a57600080fd5b6000821115611fbd576015600083815260200190815260200160002060009054906101000a900460ff16151515611f9057600080fd5b60016015600084815260200190815260200160002060006101000a81548160ff0219169083151502179055505b601160009054906101000a900473ffffffffffffffffffffffffffffffffffffffff1673ffffffffffffffffffffffffffffffffffffffff1663a9059cbb601060009054906101000a900473ffffffffffffffffffffffffffffffffffffffff16876040518363ffffffff167c0100000000000000000000000000000000000000000000000000000000028152600401808373ffffffffffffffffffffffffffffffffffffffff1673ffffffffffffffffffffffffffffffffffffffff16815260200182815260200192505050602060405180830381600087803b1580156120a457600080fd5b505af11580156120b8573d6000803e3d6000fd5b505050506040513d60208110156120ce57600080fd5b8101908080519060200190929190505050508573ffffffffffffffffffffffffffffffffffffffff163073ffffffffffffffffffffffffffffffffffffffff1614612119578561213d565b601460009054906101000a900473ffffffffffffffffffffffffffffffffffffffff165b95506000601460006101000a81548173ffffffffffffffffffffffffffffffffffffffff021916908373ffffffffffffffffffffffffffffffffffffffff16021790555060136000815480929190600101919050555061219f86601354612e73565b7f524c80c58733e169ff976380a0c7f2845b2b9263b1931ebfaf58ca70e6f1c76d86868685604051808573ffffffffffffffffffffffffffffffffffffffff1673ffffffffffffffffffffffffffffffffffffffff16815260200184815260200180602001838152602001828103825284818151815260200191508051906020019080838360005b83811015612242578082015181840152602081019050612227565b50505050905090810190601f16801561226f5780820380516001836020036101000a031916815260200191505b509550505050505060405180910390a160405180807f6f6e546f6b656e526563656976656428616464726573732c75696e743235362c81526020017f627974657329000000000000000000000000000000000000000000000000000081525060260190506040518091039020925050509392505050565b60606122f1826116f7565b15156122fc57600080fd5b600b60008381526020019081526020016000208054600181600116156101000203166002900480601f0160208091040260200160405190810160405280929190818152602001828054600181600116156101000203166002900480156123a35780601f10612378576101008083540402835291602001916123a3565b820191906000526020600020905b81548152906001019060200180831161238657829003601f168201915b50505050509050919050565b6000809054906101000a900473ffffffffffffffffffffffffffffffffffffffff1673ffffffffffffffffffffffffffffffffffffffff163373ffffffffffffffffffffffffffffffffffffffff1614151561240a57600080fd5b80600e60006101000a81548173ffffffffffffffffffffffffffffffffffffffff021916908373ffffffffffffffffffffffffffffffffffffffff16021790555050565b6000809054906101000a900473ffffffffffffffffffffffffffffffffffffffff1673ffffffffffffffffffffffffffffffffffffffff163373ffffffffffffffffffffffffffffffffffffffff1614806124f657503373ffffffffffffffffffffffffffffffffffffffff16600e60009054906101000a900473ffffffffffffffffffffffffffffffffffffffff1673ffffffffffffffffffffffffffffffffffffffff16145b151561250157600080fd5b80601260006101000a81548173ffffffffffffffffffffffffffffffffffffffff021916908373ffffffffffffffffffffffffffffffffffffffff16021790555050565b6000809054906101000a900473ffffffffffffffffffffffffffffffffffffffff1673ffffffffffffffffffffffffffffffffffffffff163373ffffffffffffffffffffffffffffffffffffffff1614806125ed57503373ffffffffffffffffffffffffffffffffffffffff16600e60009054906101000a900473ffffffffffffffffffffffffffffffffffffffff1673ffffffffffffffffffffffffffffffffffffffff16145b15156125f857600080fd5b80601160006101000a81548173ffffffffffffffffffffffffffffffffffffffff021916908373ffffffffffffffffffffffffffffffffffffffff16021790555050565b6000600460008473ffffffffffffffffffffffffffffffffffffffff1673ffffffffffffffffffffffffffffffffffffffff16815260200190815260200160002060008373ffffffffffffffffffffffffffffffffffffffff1673ffffffffffffffffffffffffffffffffffffffff16815260200190815260200160002060009054906101000a900460ff16905092915050565b601260009054906101000a900473ffffffffffffffffffffffffffffffffffffffff1681565b6000809054906101000a900473ffffffffffffffffffffffffffffffffffffffff1673ffffffffffffffffffffffffffffffffffffffff163373ffffffffffffffffffffffffffffffffffffffff1614151561275157600080fd5b600073ffffffffffffffffffffffffffffffffffffffff168173ffffffffffffffffffffffffffffffffffffffff161415151561278d57600080fd5b8073ffffffffffffffffffffffffffffffffffffffff166000809054906101000a900473ffffffffffffffffffffffffffffffffffffffff1673ffffffffffffffffffffffffffffffffffffffff167f8be0079c531659141344cd1fd0a4f28419497f9722a3daafe3b4186f6b6457e060405160405180910390a3806000806101000a81548173ffffffffffffffffffffffffffffffffffffffff021916908373ffffffffffffffffffffffffffffffffffffffff16021790555050565b6000809054906101000a900473ffffffffffffffffffffffffffffffffffffffff1673ffffffffffffffffffffffffffffffffffffffff163373ffffffffffffffffffffffffffffffffffffffff1614806128f357503373ffffffffffffffffffffffffffffffffffffffff16600e60009054906101000a900473ffffffffffffffffffffffffffffffffffffffff1673ffffffffffffffffffffffffffffffffffffffff16145b15156128fe57600080fd5b80600f60006101000a81548173ffffffffffffffffffffffffffffffffffffffff021916908373ffffffffffffffffffffffffffffffffffffffff16021790555050565b606060206040519080825280601f01601f1916602001820160405280156129785781602001602082028038833980820191505090505b509050816020820152919050565b600080612992836117ed565b90508073ffffffffffffffffffffffffffffffffffffffff168473ffffffffffffffffffffffffffffffffffffffff161480612a0157508373ffffffffffffffffffffffffffffffffffffffff166129e984610ed5565b73ffffffffffffffffffffffffffffffffffffffff16145b80612a125750612a11818561263c565b5b91505092915050565b8173ffffffffffffffffffffffffffffffffffffffff16612a3b826117ed565b73ffffffffffffffffffffffffffffffffffffffff16141515612a5d57600080fd5b600073ffffffffffffffffffffffffffffffffffffffff166002600083815260200190815260200160002060009054906101000a900473ffffffffffffffffffffffffffffffffffffffff1673ffffffffffffffffffffffffffffffffffffffff16141515612b805760006002600083815260200190815260200160002060006101000a81548173ffffffffffffffffffffffffffffffffffffffff021916908373ffffffffffffffffffffffffffffffffffffffff160217905550600073ffffffffffffffffffffffffffffffffffffffff168273ffffffffffffffffffffffffffffffffffffffff167f8c5be1e5ebec7d5bd14f71427d1e84f3dd0314c0f7b2291e5b200ac8c7c3b925836040518082815260200191505060405180910390a35b5050565b6000806000612b9385856130dc565b60086000858152602001908152602001600020549250612bff6001600760008873ffffffffffffffffffffffffffffffffffffffff1673ffffffffffffffffffffffffffffffffffffffff1681526020019081526020016000208054905061320b90919063ffffffff16565b9150600760008673ffffffffffffffffffffffffffffffffffffffff1673ffffffffffffffffffffffffffffffffffffffff16815260200190815260200160002082815481101515612c4d57fe5b9060005260206000200154905080600760008773ffffffffffffffffffffffffffffffffffffffff1673ffffffffffffffffffffffffffffffffffffffff16815260200190815260200160002084815481101515612ca757fe5b90600052602060002001819055506000600760008773ffffffffffffffffffffffffffffffffffffffff1673ffffffffffffffffffffffffffffffffffffffff16815260200190815260200160002083815481101515612d0357fe5b9060005260206000200181905550600760008673ffffffffffffffffffffffffffffffffffffffff1673ffffffffffffffffffffffffffffffffffffffff168152602001908152602001600020805480919060019003612d63919061345d565b50600060086000868152602001908152602001600020819055508260086000838152602001908152602001600020819055505050505050565b6000612da88383613224565b600760008473ffffffffffffffffffffffffffffffffffffffff1673ffffffffffffffffffffffffffffffffffffffff168152602001908152602001600020805490509050600760008473ffffffffffffffffffffffffffffffffffffffff1673ffffffffffffffffffffffffffffffffffffffff168152602001908152602001600020829080600181540180825580915050906001820390600052602060002001600090919290919091505550806008600084815260200190815260200160002081905550505050565b612e7d828261337e565b600980549050600a60008381526020019081526020016000208190555060098190806001815401808255809150509060018203906000526020600020016000909192909190915055505050565b600080612eec8573ffffffffffffffffffffffffffffffffffffffff1661342e565b1515612efb57600191506130af565b8473ffffffffffffffffffffffffffffffffffffffff1663f0b9e5ba8786866040518463ffffffff167c0100000000000000000000000000000000000000000000000000000000028152600401808473ffffffffffffffffffffffffffffffffffffffff1673ffffffffffffffffffffffffffffffffffffffff16815260200183815260200180602001828103825283818151815260200191508051906020019080838360005b83811015612fbd578082015181840152602081019050612fa2565b50505050905090810190601f168015612fea5780820380516001836020036101000a031916815260200191505b50945050505050602060405180830381600087803b15801561300b57600080fd5b505af115801561301f573d6000803e3d6000fd5b505050506040513d602081101561303557600080fd5b8101908080519060200190929190505050905063f0b9e5ba7c0100000000000000000000000000000000000000000000000000000000027bffffffffffffffffffffffffffffffffffffffffffffffffffffffff1916817bffffffffffffffffffffffffffffffffffffffffffffffffffffffff19161491505b50949350505050565b600080825114156130cf57600060010290506130d7565b602082015190505b919050565b8173ffffffffffffffffffffffffffffffffffffffff166130fc826117ed565b73ffffffffffffffffffffffffffffffffffffffff1614151561311e57600080fd5b6131716001600360008573ffffffffffffffffffffffffffffffffffffffff1673ffffffffffffffffffffffffffffffffffffffff1681526020019081526020016000205461320b90919063ffffffff16565b600360008473ffffffffffffffffffffffffffffffffffffffff1673ffffffffffffffffffffffffffffffffffffffff1681526020019081526020016000208190555060006001600083815260200190815260200160002060006101000a81548173ffffffffffffffffffffffffffffffffffffffff021916908373ffffffffffffffffffffffffffffffffffffffff1602179055505050565b600082821115151561321957fe5b818303905092915050565b600073ffffffffffffffffffffffffffffffffffffffff166001600083815260200190815260200160002060009054906101000a900473ffffffffffffffffffffffffffffffffffffffff1673ffffffffffffffffffffffffffffffffffffffff1614151561329257600080fd5b816001600083815260200190815260200160002060006101000a81548173ffffffffffffffffffffffffffffffffffffffff021916908373ffffffffffffffffffffffffffffffffffffffff1602179055506133376001600360008573ffffffffffffffffffffffffffffffffffffffff1673ffffffffffffffffffffffffffffffffffffffff1681526020019081526020016000205461344190919063ffffffff16565b600360008473ffffffffffffffffffffffffffffffffffffffff1673ffffffffffffffffffffffffffffffffffffffff168152602001908152602001600020819055505050565b600073ffffffffffffffffffffffffffffffffffffffff168273ffffffffffffffffffffffffffffffffffffffff16141515156133ba57600080fd5b6133c48282612d9c565b8173ffffffffffffffffffffffffffffffffffffffff16600073ffffffffffffffffffffffffffffffffffffffff167fddf252ad1be2c89b69c2b068fc378daa952ba7f163c4a11628f55a4df523b3ef836040518082815260200191505060405180910390a35050565b600080823b905060008111915050919050565b6000818301905082811015151561345457fe5b80905092915050565b815481835581811115613484578183600052602060002091820191016134839190613489565b5b505050565b6134ab91905b808211156134a757600081600090555060010161348f565b5090565b905600a165627a7a7230582047bcce923964cda502f43d577b98dfddbf098d89ed9d1ce1fdda24f55f832d660029",
  "source": "pragma solidity ^0.4.24;\n\nimport \"zeppelin-solidity/contracts/ownership/Ownable.sol\";\nimport \"zeppelin-solidity/contracts/token/ERC721/ERC721Token.sol\";\n\ncontract ITVCoupon {\n\n}\n\ncontract ITVCrowdsale {\n    uint256 public currentRate;\n    function buyTokens(address _beneficiary) public payable;\n}\n\ncontract ITVToken {\n    function transfer(address _to, uint256 _value) public returns (bool);\n    function safeTransfer(address _to, uint256 _value, bytes _data) public;\n}\n\ncontract TVPremium is Ownable, ERC721Token {\n    uint public discountPercentage;\n    uint public price;\n    address public manager;\n    address public TVCouponAddress;\n    address public wallet;\n    address public TVTokenAddress;\n    address public TVCrowdsaleAddress;\n\n    bytes4 constant TOKEN_RECEIVED = bytes4(keccak256(\"onTokenReceived(address,uint256,bytes)\"));\n    uint internal incrementId = 0;\n    address internal checkAndBuySender;\n\n    mapping(uint => bool) usedCoupons;\n\n    modifier onlyOwnerOrManager() {\n        require(msg.sender == owner || manager == msg.sender);\n        _;\n    }\n\n    event TokenReceived(address from, uint value, bytes data, uint couponId);\n    event ChangeAndBuyPremium(address buyer, uint rate, uint price, uint couponId);\n\n    constructor(\n        address _TVTokenAddress,\n        address _TVCrowdsaleAddress,\n        address _TVCouponAddress,\n        address _manager,\n        uint _discountPercentage,\n        address _wallet\n    ) public ERC721Token(\"TVPremium Token\", \"TVP\")  {\n        TVCouponAddress = _TVCouponAddress;\n        manager = _manager;\n        discountPercentage = _discountPercentage;\n        TVCrowdsaleAddress = _TVCrowdsaleAddress;\n        TVTokenAddress = _TVTokenAddress;\n        wallet = _wallet;\n    }\n\n    function mint(address to) public onlyOwnerOrManager {\n        incrementId++;\n        super._mint(to, incrementId);\n    }\n\n    function onTokenReceived(address _from, uint256 _value, bytes _data) public returns (bytes4) {\n        require(msg.sender == TVTokenAddress);\n        uint couponId = uint256(convertBytesToBytes32(_data));\n        uint premiumPrice = couponId == 0 ? price : price - (price * discountPercentage) / 100;\n        require(premiumPrice == _value);\n        if (couponId > 0) {\n            require(!usedCoupons[couponId]);\n            usedCoupons[couponId] = true;\n        }\n        ITVToken(TVTokenAddress).transfer(wallet, _value);\n        _from = this == _from ? checkAndBuySender : _from;\n        checkAndBuySender = address(0);\n\n        incrementId++;\n        super._mint(_from, incrementId);\n\n        emit TokenReceived(_from, _value, _data, couponId);\n        return TOKEN_RECEIVED;\n    }\n\n    function changeAndBuyPremium(uint couponId) public payable {\n        uint rate = ITVCrowdsale(TVCrowdsaleAddress).currentRate();\n        uint premiumPrice = couponId == 0 ? price : price - (price * discountPercentage) / 100;\n\n        uint priceWei = price / rate;\n        require(priceWei == msg.value);\n\n        ITVCrowdsale(TVCrowdsaleAddress).buyTokens.value(msg.value)(this);\n        bytes memory data = toBytes(couponId);\n        checkAndBuySender = msg.sender;\n        ITVToken(TVTokenAddress).safeTransfer(this, premiumPrice, data);\n\n        emit ChangeAndBuyPremium(msg.sender, rate, priceWei, couponId);\n    }\n\n    function getDiscountPrice() public view returns(uint) {\n        return price - (price * discountPercentage) / 100;\n    }\n\n    function changePrice(uint _price) public onlyOwnerOrManager {\n        price = _price;\n    }\n\n    function changeTVCouponAddress(address _address) public onlyOwnerOrManager {\n        TVCouponAddress = _address;\n    }\n\n    function changeDiscountPercentage(uint percentage) public onlyOwnerOrManager {\n        require(discountPercentage <= 100);\n        discountPercentage = percentage;\n    }\n\n    function changeWallet(address _wallet) public onlyOwnerOrManager {\n        wallet = _wallet;\n    }\n\n    function changeTVTokenAddress(address newAddress) public onlyOwnerOrManager {\n        TVTokenAddress = newAddress;\n    }\n\n    function changeTVCrowdsaleAddress(address newAddress) public onlyOwnerOrManager {\n        TVCrowdsaleAddress = newAddress;\n    }\n\n    function setManager(address _manager) public onlyOwner {\n        manager = _manager;\n    }\n\n    function convertBytesToBytes32(bytes inBytes) internal pure returns (bytes32 out) {\n        if (inBytes.length == 0) {\n            return 0x0;\n        }\n\n        assembly {\n            out := mload(add(inBytes, 32))\n        }\n    }\n\n    function toBytes(uint256 x) internal pure returns (bytes b) {\n        b = new bytes(32);\n        assembly {mstore(add(b, 32), x)}\n    }\n}\n",
  "sourcePath": "/Users/user/Projects/tvtoken/contracts/TVPremium.sol",
  "compiler": {
    "name": "solc",
    "version": "0.4.24+commit.e67f0147.Emscripten.clang"
  },
  "schemaVersion": "2.0.0",
  "updatedAt": "2018-11-13T13:21:21.038Z"
}